:100000000C945E000C9486000C9486000C94860080
:100010000C9486000C9486000C9486000C94860048
:100020000C9486000C9486000C9486000C94860038
:100030000C9486000C9486000C9486000C94860028
:100040000C948C040C9486000C945A040C94340484
:100050000C9486000C9486000C9486000C94860008
:100060000C9486000C9486000000000024002700F9
:100070002A0000000000250028002B0004040404CE
:100080000404040402020202020203030303030342
:10009000010204081020408001020408102001021F
:1000A00004081020000000080002010000030407FB
:1000B00000000000000000003B05310811241FBEB5
:1000C000CFEFD8E0DEBFCDBF12E0A0E0B1E0E4E0CA
:1000D000F8E102C005900D92AA33B107D9F723E0E9
:1000E000AAE3B2E001C01D92AC3EB207E1F710E016
:1000F000CDE5D0E004C02197FE010E94CA0ACC35AC
:10010000D107C9F70E946F050C94F50B0C94000001
:1001100080E480937C0080917A00806480937A00F0
:1001200080917A0086FDFCCF8091780090917900D3
:100130000895AF92BF92CF92DF92EF92FF920F930A
:100140001F93CF93DF936C017B018B01040F151F6D
:10015000EB015E01AE18BF08C017D10759F06991D5
:10016000D601ED91FC910190F081E02DC601099539
:10017000892B79F7C501DF91CF911F910F91FF90E6
:10018000EF90DF90CF90BF90AF900895FC01538D1A
:10019000448D252F30E0842F90E0821B930B541761
:1001A00010F0CF96089501970895FC01918D828DEE
:1001B000981761F0A28DAE0FBF2FB11D5D968C9187
:1001C000928D9F5F9F73928F90E008958FEF9FEFC6
:1001D0000895FC01918D828D981731F0828DE80F82
:1001E000F11D858D90E008958FEF9FEF0895FC013C
:1001F000918D228D892F90E0805C9F4F821B910909
:100200008F739927089583E592E00E94F70021E01B
:10021000892B09F420E0822F089580E090E0892B5B
:1002200029F00E94030181110C9400000895FC0143
:10023000A48DA80FB92FB11DA35ABF4F2C91848D47
:1002400090E001968F739927848FA689B7892C93A4
:10025000A089B1898C91837080648C93938D848DF7
:10026000981306C00288F389E02D80818F7D8083FA
:100270000895EF92FF920F931F93CF93DF93EC01BA
:1002800081E0888F9B8D8C8D98131AC0E889F9893D
:10029000808185FF15C09FB7F894EE89FF89608340
:1002A000E889F98980818370806480839FBF81E0C1
:1002B00090E0DF91CF911F910F91FF90EF90089503
:1002C000F62E0B8D10E00F5F1F4F0F731127E02EDE
:1002D0008C8D8E110CC00FB607FCFACFE889F98916
:1002E000808185FFF5CFCE010E941701F1CFEB8D04
:1002F000EC0FFD2FF11DE35AFF4FF0829FB7F894EA
:100300000B8FEA89FB8980818062CFCF682F83E5DC
:1003100092E00C943901CF93DF93EC01888D882310
:10032000B9F0AA89BB89E889F9898C9185FD03C058
:10033000808186FD0DC00FB607FCF7CF8C9185FF3D
:10034000F2CF808185FFEDCFCE010E941701E9CF6A
:10035000DF91CF910895CF93DF9390E0FC01E057B8
:10036000FF4F249184589F4FFC0184918823D1F042
:1003700090E0880F991FFC01E859FF4FA591B491B7
:10038000FC01EE58FF4FC591D491623071F49FB7D4
:10039000F8943C91822F809583238C93E8812E2BB7
:1003A00028839FBFDF91CF9108958FB7F894EC9188
:1003B0002E2B2C938FBFF6CF3FB7F89480913F023E
:1003C00090914002A0914102B091420226B5A89BB3
:1003D00005C02F3F19F00196A11DB11D3FBFBA2FD7
:1003E000A92F982F8827BC01CD01620F711D811D97
:1003F000911D42E0660F771F881F991F4A95D1F71C
:1004000008958F929F92AF92BF92CF92DF92EF9218
:10041000FF924B015C010E94DC016B017C010E9498
:10042000DC016C197D098E099F09683E73408105C6
:100430009105A8F321E0821A9108A108B10888EE7D
:10044000C80E83E0D81EE11CF11C81149104A104A4
:10045000B10429F7FF90EF90DF90CF90BF90AF905D
:100460009F908F900895CF93DF93EC011B861A869F
:100470001D861C861F861E86198A188A198618866C
:1004800088E090E00E94D00A9F838E83892B11F42C
:100490000E941E0582E090E09B878A8780E2E6E06A
:1004A000F1E0DE01589601900D928A95E1F780E423
:1004B000E6E2F1E0DE01D89601900D928A95E1F72F
:1004C000FE01E858FF4F108211821282138285E0EC
:1004D00090E0998388838DEC9CECACECBDE38A833F
:1004E0009B83AC83BD831A8A1B8A1C8A1D8A1F8A40
:1004F0001E8ADF91CF910895FB0101900020E9F75A
:100500003197AF01461B570BDC01ED91FC91028046
:10051000F381E02D09948F929F92AF92BF920F9337
:100520001F93CF93DF93CDB7DEB7A1970FB6F894A3
:10053000DEBF0FBECDBF19A2423008F44AE08E01E3
:100540000F5D1F4F842E912CB12CA12CA50194017D
:100550000E94940AE62FB901CA01EA3004F5E05D71
:10056000D801EE938D01232B242B252B79F790E0D6
:1005700080E0109729F0BD0183E592E00E947C02A3
:10058000A1960FB6F894DEBF0FBECDBFDF91CF911D
:100590001F910F91BF90AF909F908F900895E95C4D
:1005A000DFCF4F925F926F927F928F929F92AF9226
:1005B000BF92CF92DF92EF92FF920F931F93CF9350
:1005C0006B017C01742EAC019B010E947B0A68E7E1
:1005D00071E0811126C046015701E894B7F82FEF6A
:1005E0003FEF4FE75FE7C501B4010E947B0A81112D
:1005F0000CC02FEF3FEF4FE75FE7C501B4010E944A
:10060000AA086CE771E0181664F02FEF3FEF4FE790
:100610005FE4C701B6010E94090A1816ACF460E84D
:1006200071E083E592E0CF911F910F91FF90EF90E1
:10063000DF90CF90BF90AF909F908F907F906F9002
:100640005F904F900C947C022FEF3FEF4FE75FECF1
:10065000C701B6010E94AA0887FDE1CF20E030E083
:10066000A901C701B6010E94AA0810E000E087FFB7
:1006700008C08DE20E9486018C01F7FAF094F7F829
:10068000F094C0E060E070E080E09FE37C1641F011
:1006900020E030E040E251E40E94AF08CF5FF6CFA7
:1006A000A70196010E943E082B013C010E942809E7
:1006B0004B015C014AE00E948B027C01E00EF11EBE
:1006C000CC23B1F1C501B4010E9457099B01AC01D3
:1006D000C301B2010E943D084B015C018EE20E9401
:1006E0008601E80EF91EC15018F120E030E040E22A
:1006F00051E4C501B4010E940E0A2B013C010E9485
:1007000028094B01B12CA12C4AE0C501B4010E947B
:100710008B02E80EF91EC501B4010E9457099B0126
:10072000AC01C301B2010E943D084B015C01DBCF6B
:10073000C701CF911F910F91FF90EF90DF90CF9065
:10074000BF90AF909F908F907F906F905F904F90F1
:1007500008950F931F93CF93DF93EC010E947C02C7
:100760008C0164E871E0CE010E947C02800F911F31
:10077000DF91CF911F910F9108958F929F92AF9229
:10078000BF92CF92DF92EF92FF920F931F93CF937E
:10079000DF93EC0167E871E018161906DCF5880FA5
:1007A000991F880F991F0E94D00A8C01009781F130
:1007B0008090FC029090FD02E091F602F091F70229
:1007C000A090FE02B090FF02C090FA02D090FB020F
:1007D0007C0130E020E02815390514F5C9018A0DA7
:1007E0009B1DB6010E94800ADC01AA0FBB1FAA0F45
:1007F000BB1FAE0FBF1F4D915D916D917C91D701D5
:100800004D935D936D937D937D012F5F3F4FE3CFBC
:100810006CEB71E08091F8029091F9020E9435052D
:10082000CF010E946C0B1093F7020093F602109216
:10083000FF021092FE028091FC029091FD029093C3
:10084000010380930003D093FB02C093FA02DF916F
:10085000CF911F910F91FF90EF90DF90CF90BF90BD
:10086000AF909F908F9008951F920F920FB60F92A6
:1008700011242F933F934F935F936F937F938F93A5
:100880009F93AF93BF93EF93FF9383E592E00E9412
:100890001701FF91EF91BF91AF919F918F917F9140
:1008A0006F915F914F913F912F910F900FBE0F90DD
:1008B0001F9018951F920F920FB60F9211242F932D
:1008C0008F939F93EF93FF93E0916302F091640203
:1008D0008081E0916902F0916A0282FD1BC09081E3
:1008E00080916C028F5F8F7320916D02821741F0AF
:1008F000E0916C02F0E0ED5AFD4F958F80936C0211
:10090000FF91EF919F918F912F910F900FBE0F90BC
:100910001F9018958081F4CF1F920F920FB60F92FF
:1009200011242F933F938F939F93AF93BF93809105
:100930003B0290913C02A0913D02B0913E02309169
:100940003A0223E0230F2D3758F50196A11DB11D62
:1009500020933A0280933B0290933C02A0933D0285
:10096000B0933E0280913F0290914002A0914102DB
:10097000B09142020196A11DB11D80933F02909358
:100980004002A0934102B0934202BF91AF919F9168
:100990008F913F912F910F900FBE0F901F90189540
:1009A00026E8230F0296A11DB11DD2CFE1EBF0E0A6
:1009B0002491EDE9F0E09491E9E8F0E0E491EE2390
:1009C000C9F0222339F0233001F1A8F4213019F1C4
:1009D000223029F1F0E0EE0FFF1FEE58FF4FA591F6
:1009E000B4912FB7F894EC91811126C090959E2375
:1009F0009C932FBF08952730A9F02830C9F02430E8
:100A000049F7209180002F7D03C0209180002F772F
:100A100020938000DFCF24B52F7724BDDBCF24B512
:100A20002F7DFBCF2091B0002F772093B000D2CF45
:100A30002091B0002F7DF9CF9E2BDACF61E08DE0C1
:100A40000E94AB0181E00E94D6046AEF70E080E072
:100A500090E00E94010280E00E94D6046AEF70E0FC
:100A600080E090E00E940102EDCF009711F00E941B
:100A7000A9030E941E05E3E5F2E01382128288EECC
:100A800093E0A0E0B0E084839583A683B7838AE6F1
:100A900091E09183808385EC90E09587848784EC56
:100AA00090E09787868780EC90E0918B808B81EC3B
:100AB00090E0938B828B82EC90E0958B848B86EC1C
:100AC00090E0978B868B118E128E138E148E8CE68F
:100AD00093E00E94330280EF92E00C943302CF93B4
:100AE000DF9300D000D0CDB7DEB7789484B58260B4
:100AF00084BD84B5816084BD85B5826085BD85B5C2
:100B0000816085BD80916E00816080936E0010923F
:100B100081008091810082608093810080918100BA
:100B2000816080938100809180008160809380004B
:100B30008091B10084608093B1008091B0008160A9
:100B40008093B00080917A00846080937A008091D5
:100B50007A00826080937A0080917A00816080932D
:100B60007A0080917A00806880937A001092C100A8
:100B7000E0916302F091640282E08083E0915F0281
:100B8000F09160021082E0916102F091620280E1D6
:100B9000808310926B02E0916702F091680286E018
:100BA0008083E0916502F09166028081806180839C
:100BB000E0916502F0916602808188608083E09117
:100BC0006502F0916602808180688083E091650211
:100BD000F091660280818F7D808362E08DE00E94CB
:100BE000AB0166EF71E083E592E00E94A90362E049
:100BF0008EE00E94AB0184E690E09A838983C12C49
:100C0000D12C760164E170E080E090E00E94010266
:100C10000E948800BC01990F880B990B0E9459090A
:100C200020E030E048EC52E40E94AF089B01AC01A8
:100C3000C701B6010E943E086B017C01E981FA817F
:100C40003197FA83E983EF2BE9F620E030E0A90140
:100C50000E943E08609343027093440280934502D1
:100C60009093460260E072E083E592E00E94A9035F
:100C700064E670E080E090E00E9401020E9488003B
:100C8000BC01990F880B990B0E9459096B017C01DB
:100C9000C0924F02D0925002E0925102F092520262
:100CA00020910603309107038091F0029091F102A8
:100CB000281739070CF46CC02091FC023091FD021A
:100CC0002115310541F467E072E08091F8029091BE
:100CD000F9020E9435056091F6027091F702809149
:100CE000FE029091FF02AC014F5F5F4F5093FF02F5
:100CF0004093FE02880F991F880F991F860F971F38
:100D0000FC0180809180A280B38021503109309312
:100D1000FD022093FC028091FA029091FB02481799
:100D2000590721F41092FF021092FE02211531059D
:100D300091F0AC0197FF02C04D5F5F4F559547950D
:100D4000559547954217530734F097FD01969595B1
:100D500087950E94BD03A5019401609102037091E3
:100D6000030380910403909105030E943D08609362
:100D7000020370930303809304039093050380910F
:100D8000060390910703019790930703809306034E
:100D90006091F0027091F102072E000C880B990B04
:100DA0000E9459099B01AC01C701B6010E94AF081E
:100DB0004B015C018091FC029091FD022091FA02AE
:100DC0003091FB028217930721F4880F991F0E942C
:100DD000BD034091F6025091F7028091000390917B
:100DE00001039C012F5F3F4F3093010320930003C9
:100DF000880F991F880F991F840F951FFC0180820F
:100E00009182A282B3828091FA029091FB0228170C
:100E1000390721F410920103109200038091FC0223
:100E20009091FD0201969093FD028093FC026091E7
:100E3000F0027091F102072E000C880B990B0E94B2
:100E400059099B01AC01C701B6010E94AF0820916E
:100E500002033091030340910403509105030E9463
:100E60003E086093020370930303809304039093FE
:100E7000050320910603309107032F5F3F4F309306
:100E80000703209306034090F2025090F302609013
:100E9000F4027090F502A30192010E94AF084B0189
:100EA0005C0120E030E0A9010E94090A20E030E066
:100EB00040E05FE387FDCBC0C501B4010E943E085E
:100EC0000E9421090E9459099B01AC01C301B20192
:100ED0000E940E0A60934B0270934C0280934D0265
:100EE00090934E0260916C0370916D03072E000C7D
:100EF000880B990B0E94590920E030E040E85FE33D
:100F00000E943E089B01AC0160E070E080E090E44C
:100F10000E94AF084B015C0140906E0350906F033C
:100F20006090700370907103AC019B0160E070E011
:100F300080E89FE30E943D082091E4033091E5039F
:100F40004091E6035091E7030E940E0A69837A8379
:100F50008B839C83A7019601C501B4010E940E0AF0
:100F60009B01AC0169817A818B819C810E943E0842
:100F7000A30192010E94AF084B015C0120E030E028
:100F8000A9010E94090A20E030E040E05FE387FD0C
:100F900063C0C501B4010E943E080E9421090E945D
:100FA00059099B01AC01C301B2010E940E0A609372
:100FB000E4037093E5038093E6039093E703609363
:100FC0004702709348028093490290934A0242E09C
:100FD000C701B6010E94D10264E871E083E592E0A6
:100FE0000E947C028CE20E94860160914B0270910B
:100FF0004C0280914D0290914E0242E00E94D1023B
:101000008CE20E94860160914702709148028091B3
:10101000490290914A0242E00E94D10264E871E0E4
:1010200083E592E00E947C026AE070E080E090E05C
:101030000E94010280E090E0892B09F41FCE0E94FB
:101040000301882309F41ACE0E94000017CEC501BF
:10105000B4010E943D0834CFC501B4010E943D088F
:101060009CCF8091F6029091F7020E946C0B8091C8
:101070007203909173030C946C0B5058BB27AA27F2
:101080000E9455080C94CF090E94C10938F00E94B3
:10109000C80920F039F49F3F19F426F40C94BE09D6
:1010A0000EF4E095E7FB0C94B809E92F0E94E009E3
:1010B00058F3BA17620773078407950720F079F48D
:1010C000A6F50C94020A0EF4E0950B2EBA2FA02D73
:1010D0000B01B90190010C01CA01A0011124FF27E5
:1010E000591B99F0593F50F4503E68F11A16F040E0
:1010F000A22F232F342F4427585FF3CF46953795DF
:101100002795A795F0405395C9F77EF41F16BA0BA3
:10111000620B730B840BBAF09150A1F0FF0FBB1F51
:10112000661F771F881FC2F70EC0BA0F621F731F9A
:10113000841F48F4879577956795B795F7959E3FF7
:1011400008F0B0CF9395880F08F09927EE0F979588
:10115000879508950E94940908F481E008950E94FB
:10116000C3080C94CF090E94C80958F00E94C10915
:1011700040F029F45F3F29F00C94B80951110C9408
:10118000030A0C94BE090E94E00968F39923B1F3A5
:10119000552391F3951B550BBB27AA27621773079D
:1011A000840738F09F5F5F4F220F331F441FAA1F31
:1011B000A9F335D00E2E3AF0E0E832D091505040ED
:1011C000E695001CCAF72BD0FE2F29D0660F771F9B
:1011D000881FBB1F261737074807AB07B0E809F081
:1011E000BB0B802DBF01FF2793585F4F3AF09E3F06
:1011F000510578F00C94B8090C94030A5F3FE4F3AE
:10120000983ED4F3869577956795B795F7959F5F48
:10121000C9F7880F911D9695879597F90895E1E094
:10122000660F771F881FBB1F621773078407BA07F3
:1012300020F0621B730B840BBA0BEE1F88F7E0954E
:1012400008950E9428096894B1110C94030A089526
:101250000E94E80988F09F5798F0B92F9927B75155
:10126000B0F0E1F0660F771F881F991F1AF0BA954A
:10127000C9F714C0B13091F00E94020AB1E008959C
:101280000C94020A672F782F8827B85F39F0B93F8E
:10129000CCF3869577956795B395D9F73EF49095FD
:1012A0008095709561957F4F8F4F9F4F0895E8947B
:1012B00009C097FB3EF490958095709561957F4F9E
:1012C0008F4F9F4F9923A9F0F92F96E9BB2793954C
:1012D000F695879577956795B795F111F8CFFAF45C
:1012E000BB0F11F460FF1BC06F5F7F4F8F4F9F4F8D
:1012F00016C0882311F096E911C0772321F09EE8EB
:10130000872F762F05C0662371F096E8862F70E050
:1013100060E02AF09A95660F771F881FDAF7880F2A
:101320009695879597F90895990F0008550FAA0B80
:10133000E0E8FEEF16161706E807F907C0F01216E8
:101340001306E407F50798F0621B730B840B950BEB
:1013500039F40A2661F0232B242B252B21F4089540
:101360000A2609F4A140A6958FEF811D811D0895DD
:1013700097F99F6780E870E060E008959FEF80EC48
:10138000089500240A9416161706180609060895EB
:1013900000240A9412161306140605060895092E51
:1013A0000394000C11F4882352F0BB0F40F4BF2BC0
:1013B00011F460FF04C06F5F7F4F8F4F9F4F089500
:1013C00057FD9058440F551F59F05F3F71F04795F6
:1013D000880F97FB991F61F09F3F79F087950895DB
:1013E000121613061406551FF2CF4695F1DF08C0FA
:1013F000161617061806991FF1CF86957105610517
:1014000008940895E894BB2766277727CB0197F9BE
:1014100008950E94940908F48FEF08950E94210A0C
:101420000C94CF090E94C10938F00E94C80920F02D
:10143000952311F00C94B8090C94BE0911240C9456
:10144000030A0E94E00970F3959FC1F3950F50E0E5
:10145000551F629FF001729FBB27F00DB11D639F66
:10146000AA27F00DB11DAA1F649F6627B00DA11D0C
:10147000661F829F2227B00DA11D621F739FB00DB2
:10148000A11D621F839FA00D611D221F749F332722
:10149000A00D611D231F849F600D211D822F762FBB
:1014A0006A2F11249F5750409AF0F1F088234AF098
:1014B000EE0FFF1FBB1F661F771F881F9150504004
:1014C000A9F79E3F510580F00C94B8090C94030ACB
:1014D0005F3FE4F3983ED4F3869577956795B7958B
:1014E000F795E7959F5FC1F7FE2B880F911D9695A5
:1014F000879597F908950E949409880B990B089590
:1015000097FB072E16F4009407D077FD09D00E94B0
:10151000B60A07FC05D03EF4909581959F4F08953B
:10152000709561957F4F0895A1E21A2EAA1BBB1BEF
:10153000FD010DC0AA1FBB1FEE1FFF1FA217B3079F
:10154000E407F50720F0A21BB30BE40BF50B661FB5
:10155000771F881F991F1A9469F760957095809579
:1015600090959B01AC01BD01CF010895AA1BBB1B47
:1015700051E107C0AA1FBB1FA617B70710F0A61B93
:10158000B70B881F991F5A95A9F780959095BC01B4
:10159000CD010895EE0FFF1F0590F491E02D099401
:1015A0000F931F93CF93DF938230910510F482E065
:1015B00090E0E091EA03F091EB0330E020E0B0E04E
:1015C000A0E0309799F42115310509F44AC0281B91
:1015D000390B24303105D8F58A819B81611571055D
:1015E00089F1FB0193838283FE0111C04081518107
:1015F0000281138148175907E0F04817590799F4F9
:10160000109761F012960C93129713961C933296D2
:10161000CF01DF91CF911F910F9108950093EA03BD
:101620001093EB03F4CF2115310551F04217530706
:1016300038F0A901DB019A01BD01DF01F801C1CF3A
:10164000EF01F9CF9093EB038093EA03CDCFFE0136
:10165000E20FF31F8193919322503109398328833C
:10166000D7CF2091E8033091E903232B41F4209157
:101670000201309103013093E9032093E8032091A4
:101680000001309101012115310541F42DB73EB71C
:101690004091040150910501241B350BE091E803B2
:1016A000F091E903E217F307A0F42E1B3F0B281774
:1016B000390778F0AC014E5F5F4F2417350748F0CB
:1016C0004E0F5F1F5093E9034093E803819391937A
:1016D0009FCFF0E0E0E09CCFCF93DF930097E9F05D
:1016E000FC01329713821282A091EA03B091EB03BE
:1016F000ED0130E020E01097A1F420813181820FCC
:10170000931F2091E8033091E9032817390709F066
:1017100061C0F093E903E093E803DF91CF9108956E
:10172000EA01CE17DF07E8F54A815B819E0141158A
:101730005105B1F7E901FB83EA8349915991C40F3F
:10174000D51FEC17FD0761F4808191810296840F0B
:10175000951FE90199838883828193819B838A8382
:10176000F0E0E0E012968D919C9113970097B9F507
:101770002D913C911197CD010296820F931F2091DC
:10178000E8033091E9032817390739F6309751F506
:101790001092EB031092EA03B093E903A093E803DD
:1017A000BCCFD383C28340815181840F951FC8175A
:1017B000D90761F44E5F5F4F88819981480F591FA7
:1017C000518340838A819B819383828321153105D4
:1017D00009F0B0CFF093EB03E093EA039ECFFD0155
:1017E000DC01C0CF13821282D7CF10E0CDE5D0E06C
:1017F00004C0FE010E94CA0A2196CE35D107C9F75E
:04180000F894FFCF8A
:101804000000EC0380009A99993E0000803E9A996A
:10181400193E1F85EB3D295C8F3DB81E853D8FC267
:10182400F53C0AD7A33CCDCC4C3E9A99193EAE4721
:10183400E13DEC51B83D0AD7A33D9A99993D8FC239
:10184400753D0AD7233D295C0F3D8FC2F53C8FC2FD
:10185400F53CCDCCCC3CCDCCCC3C0AD7A33C0AD770
:10186400233C0AD7233C0000000039019900C6003C
:101874008B01F700D500E9006E616E00696E6600A9
:101884006F7666000D0A0051554555453A2065723C
:10189400726F722064756520746F20756E64657351
:1018A400697261626C652073697A6520666F722063
:1018B40071756575652073697A652E0051554555B6
:1018C400453A20696E73756666696369656E74204E
:1018D4006D656D6F727920746F20696E69746961CA
:1018E4006C697A652074656D706F726172792071AC
:1018F400756575652E0053657269616C204F4B00E8
:10190400414443204F4B0051554555453A206361AE
:101914006E277420706F70206974656D2066726F15
:101924006D2071756575653A2071756575652069F9
:0A1934007320656D7074792E0000B9
:00000001FF
