:100000000C9438010C9469010C9469010C946901F9
:100010000C9469010C9469010C9469010C946901B8
:100020000C9469010C9469010C9469010C946901A8
:100030000C9469010C9469010C9469010C94690198
:100040000C9469010C9469010C9469010C94690188
:100050000C9469010C9469010C9469010C94A60636
:100060000C9469010C9470060C9446060C9469017A
:100070000C9469010C9469010C9469010C94690158
:100080000C9469010C9469010C9469010C94690148
:100090000C9469010C9469010C9469010C94690138
:1000A0000C9469010C9469010C9469010C94690128
:1000B0000C9469010C9469010C9469010C94690118
:1000C0000C9469010C9469010C9469010C94690108
:1000D0000C9469010C9469010C9469010C946901F8
:1000E0000C9469010C9498010C94FE020C94FD028E
:1000F0000C943A090C94C9010C94DC020C94BD02D6
:100100000C94F8020C9401020C94C3020C94CB02E0
:100110000C944E020C9402030C94E2020C94BB016A
:100120000C945B070C94F0020C94C7020C94EA0246
:100130000C94E6020C94D8020C94F4020C946B011B
:100140000C94D2020C94CF020C94A7010000210061
:10015000240027002A002D00300033000101000098
:10016000040107010A0100002200250028002B00DD
:100170002E003100340002010000050108010B01CE
:10018000000020002300260029002C002F00320050
:100190000001000003010601090105050505070529
:1001A00008080808020202020A0A080804040404F3
:1001B000010101010101010103030303030303031F
:1001C000040707070C0C0C0C0C0C0C0C02020202AE
:1001D00006060606060606060B0B0B0B0B0B0B0B97
:1001E0000102102020080810204010204080020149
:1001F000020108040201010204081020408080402E
:10020000201008040201800402018040201008042C
:1002100002010804020101020408102040800102CA
:1002200004081020408000000A0B02090C0D0E0883
:1002300007030401000000000000000000000000AF
:1002400000000000000000000000000000000000AE
:10025000000012111000000000000000000000006B
:100260000000000000000000000000005B073A09E9
:1002700011241FBECFEFD1E2DEBFCDBF00E00CBF27
:1002800012E0A0E0B2E0E4E2FAE100E00BBF02C05D
:1002900007900D92AA3CB107D9F723E0AAECB2E08F
:1002A00001C01D92A03BB207E1F711E0C7E3D1E026
:1002B00000E006C021970109802FFE010E94BF0BBC
:1002C000C633D10780E00807A9F70E942F080C94D5
:1002D000000D0C940000AF92BF92CF92DF92EF928C
:1002E000FF920F931F93CF93DF936C017B018B01E0
:1002F000040F151FEB015E01AE18BF08C017D10730
:1003000059F06991D601ED91FC910190F081E02DB9
:10031000C6011995892B79F7C501DF91CF911F91FE
:100320000F91FF90EF90DF90CF90BF90AF90089526
:10033000FC01538D448D252F30E0842F90E0821BEB
:10034000930B541710F0CF96089501970895FC0170
:10035000918D828D981761F0A28DAE0FBF2FB11DC8
:100360005D968C91928D9F5F9F73928F90E0089520
:100370008FEF9FEF0895FC01918D828D981731F0DA
:10038000828DE80FF11D858D90E008958FEF9FEF2E
:100390000895FC01918D228D892F90E0805C9F4F04
:1003A000821B91098F73992708958FED92E00E9427
:1003B000C90121E0892B09F420E0822F0895FC0176
:1003C000A48DA80FB92FB11DA35ABF4F2C91848DB6
:1003D00090E001968F739927848FA689B7892C9313
:1003E000A089B1898C91837080648C93938D848D66
:1003F000981306C00288F389E02D80818F7D808369
:100400000895EF92FF920F931F93CF93DF93EC0128
:1004100081E0888F9B8D8C8D98131AC0E889F989AB
:10042000808185FF15C09FB7F894EE89FF896083AE
:10043000E889F98980818370806480839FBF81E02F
:1004400090E0DF91CF911F910F91FF90EF90089571
:10045000F62E0B8D10E00F5F1F4F0F731127E02E4C
:100460008C8D8E110CC00FB607FCFACFE889F98984
:10047000808185FFF5CFCE010E94DF01F1CFEB8DAA
:10048000EC0FFD2FF11DE35AFF4FF0829FB7F89458
:100490000B8FEA89FB8980818062CFCFCF93DF9376
:1004A000EC01888D8823B9F0AA89BB89E889F9898C
:1004B0008C9185FD03C0808186FD0DC00FB607FCC1
:1004C000F7CF8C9185FFF2CF808185FFEDCFCE01F4
:1004D0000E94DF01E9CFDF91CF91089580E090E0A5
:1004E000892B29F00E94D50181110E94000080E033
:1004F00090E0892B49F080E090E0892B29F00E9460
:10050000000081110E94000080E090E0892B49F0FA
:1005100080E090E0892B29F00E94000081110E9468
:10052000000080E090E0892B49F080E090E0892B8A
:1005300029F00E94000081110C9400000895815060
:10054000823108F05AC0E82FF0E08827E555FD4FCA
:100550008F4F0C94BF0BCB02CF02BD02C302C70268
:10056000FD02D202D802DC02E202E602EA02F00256
:10057000F402FD02F802FE020203809180008F77F0
:10058000809380000895809180008F7DF9CF8091C5
:100590008000877FF5CF84B58F7784BD089584B5BB
:1005A0008F7DFBCF8091B0008F778093B00008954E
:1005B0008091B0008F7DF9CF809190008F778093EC
:1005C00090000895809190008F7DF9CF80919000E8
:1005D000877FF5CF8091A0008F778093A00008954A
:1005E0008091A0008F7DF9CF8091A000877FF5CF0B
:1005F000809120018F7780932001089580912001C0
:100600008F7DF9CF80912001877FF5CFCF93DF9346
:10061000E9E2F2E08491E3EEF1E0D491EDE9F1E07A
:10062000C491CC23A1F081110E949F02EC2FF0E035
:10063000EE0FFF1FE058FE4FA591B491EC91ED2312
:1006400081E090E009F480E0DF91CF91089580E0AF
:1006500090E0FACF1F93CF93DF93282F30E0F9017A
:10066000EA5DFD4F8491F901E052FE4FD491F9010A
:10067000E656FE4FC491CC23A9F0162F81110E949B
:100680009F02EC2FF0E0EE0FFF1FEA59FE4FA591FD
:10069000B4918FB7F894EC91111108C0D095DE2376
:1006A000DC938FBFDF91CF911F910895DE2BF8CFA0
:1006B000CF93DF9390E0FC01E052FE4F24918656E9
:1006C0009E4FFC0184918823D1F090E0880F991F00
:1006D000FC01E45BFE4FA591B491FC01EA59FE4F89
:1006E000C591D491623071F49FB7F8943C91822FF8
:1006F000809583238C93E8812E2B28839FBFDF91E5
:10070000CF9108958FB7F894EC912E2B2C938FBF37
:10071000F6CFCF92DF92EF92FF92CF9360E082E02C
:100720000E942A030E940603892BE1F7C8E1C12C2D
:10073000D12C760161E082E00E942A03CC0CDD1C02
:10074000EE1CFF1C60E082E00E942A030E94060368
:10075000892B29F02FEFC21AD20AE20AF20AC150FD
:1007600049F761E082E00E942A0360E082E00E9493
:100770002A03C701B60180580E94600A2091D30263
:100780003091D4024091D5025091D6020E94460980
:10079000CF91FF90EF90DF90CF900895FB010190F3
:1007A0000020E9F73197AF01461B570BDC01ED91B3
:1007B000FC910280F381E02D19948F929F92AF9269
:1007C000BF920F931F93CF93DF93CDB7DEB7A1975F
:1007D0000FB6F894DEBF0FBECDBF19A2423008F4A9
:1007E0004AE08E010F5D1F4F842E912CB12CA12C5D
:1007F000A50194010E949D0BE62FB901CA01EA30C0
:1008000004F5E05DD801EE938D01232B242B252BDD
:1008100079F790E080E0109729F0BD018FED92E02C
:100820000E94CE03A1960FB6F894DEBF0FBECDBFD7
:10083000DF91CF911F910F91BF90AF909F908F90BC
:100840000895E95CDFCF4F925F926F927F928F9213
:100850009F92AF92BF92CF92DF92EF92FF920F934F
:100860001F93CF936B017C01742EAC019B010E94FE
:10087000840B68E172E0811126C046015701E894BB
:10088000B7F82FEF3FEF4FE75FE7C501B4010E94D4
:10089000840B81110CC02FEF3FEF4FE75FE7C501DD
:1008A000B4010E94B3096CE172E0181664F02FEFF6
:1008B0003FEF4FE75FE4C701B6010E94120B181625
:1008C000ACF460E272E08FED92E0CF911F910F9156
:1008D000FF90EF90DF90CF90BF90AF909F908F9060
:1008E0007F906F905F904F900C94CE032FEF3FEF6F
:1008F0004FE75FECC701B6010E94B30987FDE1CF66
:1009000020E030E0A901C701B6010E94B30910E060
:1009100000E087FF0AC06DE28FED92E00E940102C5
:100920008C01F7FAF094F7F8F094C0E060E070E022
:1009300080E09FE37C1641F020E030E040E251E4AB
:100940000E94B809CF5FF6CFA70196010E94470920
:100950002B013C010E94310A4B015C014AE00E94DC
:10096000DD037C01E00EF11ECC23C1F1C501B40111
:100970000E94600A9B01AC01C301B2010E944609BA
:100980004B015C016EE28FED92E00E940102E80EE5
:10099000F91EC15018F120E030E040E251E4C501F9
:1009A000B4010E94170B2B013C010E94310A4B013C
:1009B000B12CA12C4AE0C501B4010E94DD03E80E70
:1009C000F91EC501B4010E94600A9B01AC01C3017C
:1009D000B2010E9446094B015C01DBCFC701CF91F8
:1009E0001F910F91FF90EF90DF90CF90BF90AF904D
:1009F0009F908F907F906F905F904F900895EC0143
:100A0000009739F00E94CE0364E272E0CE010E94AA
:100A1000CE030E944A078F929F92AF92BF92CF92CD
:100A2000DF92EF92FF920F931F93CF93DF93EC012E
:100A30008B0167E272E01016110694F5C801880F69
:100A4000991F880F991F0E94DB0B7C01009731F1E1
:100A50008E809F805C01CA80DB8030E020E028151A
:100A6000390514F588859985820F931F6C817D81E6
:100A70000E94890BFC01EE0FFF1FEE0FFF1FEC0D14
:100A8000FD1D80819181A281B381F50181939193B4
:100A9000A193B1935F012F5F3F4FE1CF6CE572E00F
:100AA000888199810E94FF04C6010E94770CFB8215
:100AB000EA82198618868E819F819B878A871D838B
:100AC0000C83DF91CF911F910F91FF90EF90DF90FA
:100AD000CF90BF90AF909F908F9008958F929F92EC
:100AE000AF92BF92CF92DF92EF92FF920F931F933C
:100AF000CF93DF93EC014A015B018C010A5F1F4F2A
:100B00002E893F8988819981281739070CF450C0B4
:100B10008C859D85009731F466E972E08E819F8116
:100B20000E94FF04688579854E855F859A012F5F55
:100B30003F4F3F872E87440F551F440F551F460FC9
:100B4000571FFA01C080D180E280F38001979D8712
:100B50008C876A857B852617370711F41F861E86CA
:100B60000097A9F09B0177FF02C02D5F3F4F35959D
:100B7000279535952795281739074CF077FF02C040
:100B80006F5F7F4F75956795C8010E940B05A701A0
:100B900096016A897B898C899D890E9446096A8BA6
:100BA0007B8B8C8B9D8B8E899F8901979F8B8E8BE6
:100BB0006C857D858A859B856817790729F4660F82
:100BC000771FC8010E940B05288539858889998976
:100BD000AC014F5F5F4F598B488B880F991F880F6F
:100BE000991F820F931FFC0180829182A282B3829F
:100BF0008A859B854817590711F4198A188A8C85AC
:100C00009D8501969D878C872A893B894C895D89C2
:100C1000C501B4010E9447094B015C018A8A9B8A85
:100C2000AC8ABD8A8E899F8901969F8B8E8BCA80E4
:100C3000DB80EC80FD8068817981072E000C880BB9
:100C4000990B0E94620A9B01AC01C501B4010E948C
:100C5000B809A70196010E94B8090E942A0A072E26
:100C6000000C880B990B0E94620AA70196010E9452
:100C7000170BDF91CF911F910F91FF90EF90DF90B5
:100C8000CF90BF90AF909F908F9008951F920F923A
:100C90000FB60F9211240BB60F922F933F934F93E1
:100CA0005F936F937F938F939F93AF93BF93EF93D4
:100CB000FF938FED92E00E94DF01FF91EF91BF91D2
:100CC000AF919F918F917F916F915F914F913F91E4
:100CD0002F910F900BBE0F900FBE0F901F90189585
:100CE0001F920F920FB60F9211240BB60F922F93F3
:100CF0008F939F93EF93FF93E091EF02F091F002B7
:100D00008081E091F502F091F60282FD1DC0908194
:100D10008091F8028F5F8F732091F902821741F062
:100D2000E091F802F0E0E152FD4F958F8093F802D8
:100D3000FF91EF919F918F912F910F900BBE0F908C
:100D40000FBE0F901F9018958081F2CF1F920F92C7
:100D50000FB60F9211242F933F938F939F93AF93CE
:100D6000BF938091CB029091CC02A091CD02B09123
:100D7000CE023091CA0223E0230F2D3758F5019699
:100D8000A11DB11D2093CA028093CB029093CC0287
:100D9000A093CD02B093CE028091CF029091D00269
:100DA000A091D102B091D2020196A11DB11D8093F4
:100DB000CF029093D002A093D102B093D202BF9100
:100DC000AF919F918F913F912F910F900FBE0F90F8
:100DD0001F90189526E8230F0296A11DB11DD2CFB2
:100DE0003FB7F8948091CF029091D002A091D102A8
:100DF000B091D20226B5A89B05C02F3F19F00196ED
:100E0000A11DB11D3FBFBA2FA92F982F8827BC0164
:100E1000CD01620F711D811D911D42E0660F771F8C
:100E2000881F991F4A95D1F708958F929F92AF928C
:100E3000BF92CF92DF92EF92FF920E94F0064B0199
:100E40005C018AEFC82ED12CE12CF12C0E94F00617
:100E5000681979098A099B09683E734081059105E3
:100E6000A8F321E0C21AD108E108F10888EE880E43
:100E700083E0981EA11CB11CC114D104E104F1044B
:100E800029F7FF90EF90DF90CF90BF90AF909F90A9
:100E90008F90089561E08DE00E94580361E08DE03D
:100EA0000E942A030E94150760E08DE00E942A0339
:100EB0000E941507F3CFCF92DF92EF92FF920F932C
:100EC0001F93CF93DF931092E2021092E10288EE1B
:100ED00093E0A0E0B0E08093E3029093E402A0935B
:100EE000E502B093E6028AE092E09093E0028093FC
:100EF000DF0285EC90E09093EC028093EB0284ECAF
:100F000090E09093EE028093ED0280EC90E090935D
:100F1000F0028093EF0281EC90E09093F2028093D4
:100F2000F10282EC90E09093F4028093F30286EC5D
:100F300090E09093F6028093F5021092F8021092DE
:100F4000F9021092FA021092FB0210929F03109283
:100F50009E031092A1031092A0031092A30310927B
:100F6000A2031092A5031092A40310929B03109267
:100F70009A0388E090E00E94DB0B90939D0380939E
:100F80009C03892B11F40E944A0702E010E01093A1
:100F90009F0300939E03CAE0D0E0D0939503C093D3
:100FA0009403C12CD12C80E8E82E8FE3F82EC09258
:100FB0009603D0929703E0929803F09299031092CF
:100FC000A6031092A7031092A8031092A9031092EF
:100FD000AB031092AA03109287031092860310921B
:100FE00089031092880310928B0310928A03109247
:100FF0008D0310928C03109283031092820388E079
:1010000090E00E94DB0B9093850380938403892BEF
:1010100009F4B9CF1093870300938603D0937D031F
:10102000C0937C03C0927E03D0927F03E092800342
:10103000F092810310928E0310928F03109290030E
:10104000109291031092930310929203DF91CF912B
:101050001F910F91FF90EF90DF90CF9008957894BB
:1010600084B5826084BD84B5816084BD85B58260AD
:1010700085BD85B5816085BD80916E00816080935E
:101080006E001092810080918100826080938100C7
:1010900080918100816080938100809180008160D7
:1010A000809380008091B10084608093B100809132
:1010B000B00081608093B000809191008260809345
:1010C00091008091910081608093910080919000C7
:1010D0008160809390008091A10082608093A10044
:1010E0008091A10081608093A1008091A000816027
:1010F0008093A000809121018260809321018091E2
:101100002101816080932101809120018160809381
:10111000200180917A00846080937A0080917A0027
:10112000826080937A0080917A00816080937A0057
:1011300080917A00806880937A001092C10062E00A
:1011400083E00E94580361E082E00E945803E0912E
:10115000EF02F091F00282E08083E091EB02F091E7
:10116000EC021082E091ED02F091EE0280E18083CA
:101170001092F702E091F302F091F40286E080838E
:10118000E091F102F091F202808180618083E09130
:10119000F102F091F202808188608083E091F10297
:1011A000F091F202808180688083E091F102F091F9
:1011B000F20280818F7D8083CAE0D0E0C12CD12CE7
:1011C00076010E9489039B01AC01C701B6010E9410
:1011D00047096B017C012197A1F720E030E040E254
:1011E00051E40E94B8096093D3027093D4028093B3
:1011F000D5029093D6020E9489036B017C01C092B4
:10120000DB02D092DC02E092DD02F092DE02BC0151
:10121000A60184E993E00E946E05AB01BC018CE756
:1012200093E00E946E056093D7027093D80280937A
:10123000D9029093DA0242E0C701B6010E9423046A
:1012400068EC72E08FED92E00E94CE036091D702CD
:101250007091D8028091D9029091DA0242E00E9406
:10126000230464E272E08FED92E00E94CE030E94BC
:101270006E02C1CF80918403909185030E94770C08
:1012800080919C0390919D030C94770C5058BB2740
:10129000AA270E945E090C94D80A0E94CA0A38F054
:1012A0000E94D10A20F039F49F3F19F426F40C94DF
:1012B000C70A0EF4E095E7FB0C94C10AE92F0E94DF
:1012C000E90A58F3BA17620773078407950720F0F5
:1012D00079F4A6F50C940B0B0EF4E0950B2EBA2FB7
:1012E000A02D0B01B90190010C01CA01A00111242C
:1012F000FF27591B99F0593F50F4503E68F11A16D8
:10130000F040A22F232F342F4427585FF3CF469568
:1013100037952795A795F0405395C9F77EF41F168A
:10132000BA0B620B730B840BBAF09150A1F0FF0F54
:10133000BB1F661F771F881FC2F70EC0BA0F621F40
:10134000731F841F48F4879577956795B795F79530
:101350009E3F08F0B0CF9395880F08F09927EE0FC5
:101360009795879508950E949D0A08F481E0089555
:101370000E94CC090C94D80A0E94D10A58F00E940D
:10138000CA0A40F029F45F3F29F00C94C10A5111B8
:101390000C940C0B0C94C70A0E94E90A68F3992379
:1013A000B1F3552391F3951B550BBB27AA27621761
:1013B0007307840738F09F5F5F4F220F331F441F6E
:1013C000AA1FA9F335D00E2E3AF0E0E832D09150A2
:1013D0005040E695001CCAF72BD0FE2F29D0660F8F
:1013E000771F881FBB1F261737074807AB07B0E8D2
:1013F00009F0BB0B802DBF01FF2793585F4F3AF0D8
:101400009E3F510578F00C94C10A0C940C0B5F3F81
:10141000E4F3983ED4F3869577956795B795F7955D
:101420009F5FC9F7880F911D9695879597F9089545
:10143000E1E0660F771F881FBB1F621773078407E1
:10144000BA0720F0621B730B840BBA0BEE1F88F7F0
:10145000E09508950E94310A6894B1110C940C0B28
:1014600008950E94F10A88F09F5798F0B92F9927A4
:10147000B751B0F0E1F0660F771F881F991F1AF07F
:10148000BA95C9F714C0B13091F00E940B0BB1E0CE
:1014900008950C940B0B672F782F8827B85F39F0CD
:1014A000B93FCCF3869577956795B395D9F73EF418
:1014B00090958095709561957F4F8F4F9F4F0895C0
:1014C000E89409C097FB3EF49095809570956195DE
:1014D0007F4F8F4F9F4F9923A9F0F92F96E9BB2794
:1014E0009395F695879577956795B795F111F8CF10
:1014F000FAF4BB0F11F460FF1BC06F5F7F4F8F4F7B
:101500009F4F16C0882311F096E911C0772321F070
:101510009EE8872F762F05C0662371F096E8862F08
:1015200070E060E02AF09A95660F771F881FDAF75F
:10153000880F9695879597F90895990F0008550F8C
:10154000AA0BE0E8FEEF16161706E807F907C0F049
:1015500012161306E407F50798F0621B730B840B51
:10156000950B39F40A2661F0232B242B252B21F42B
:1015700008950A2609F4A140A6958FEF811D811DCB
:10158000089597F99F6780E870E060E008959FEF05
:1015900080EC089500240A9416161706180609060A
:1015A000089500240A9412161306140605060895D9
:1015B000092E0394000C11F4882352F0BB0F40F461
:1015C000BF2B11F460FF04C06F5F7F4F8F4F9F4FA1
:1015D000089557FD9058440F551F59F05F3F71F023
:1015E0004795880F97FB991F61F09F3F79F087958A
:1015F0000895121613061406551FF2CF4695F1DF13
:1016000008C0161617061806991FF1CF86957105A2
:10161000610508940895E894BB2766277727CB01D6
:1016200097F908950E949D0A08F48FEF08950E948B
:101630002A0B0C94D80A0E94CA0A38F00E94D10AD8
:1016400020F0952311F00C94C10A0C94C70A1124C0
:101650000C940C0B0E94E90A70F3959FC1F3950F4F
:1016600050E0551F629FF001729FBB27F00DB11D26
:10167000639FAA27F00DB11DAA1F649F6627B00DB6
:10168000A11D661F829F2227B00DA11D621F739F9F
:10169000B00DA11D621F839FA00D611D221F749FAD
:1016A0003327A00D611D231F849F600D211D822FF4
:1016B000762F6A2F11249F5750409AF0F1F088231B
:1016C0004AF0EE0FFF1FBB1F661F771F881F915048
:1016D0005040A9F79E3F510580F00C94C10A0C942C
:1016E0000C0B5F3FE4F3983ED4F3869577956795AE
:1016F000B795F795E7959F5FC1F7FE2B880F911D72
:101700009695879597F908950E949D0A880B990BE5
:10171000089597FB072E16F4009407D077FD09D0A3
:101720000E94C70B07FC05D03EF4909581959F4F12
:101730000895709561957F4F0895A1E21A2EAA1B16
:10174000BB1BFD010DC0AA1FBB1FEE1FFF1FA21771
:10175000B307E407F50720F0A21BB30BE40BF50B6E
:10176000661F771F881F991F1A9469F760957095F7
:10177000809590959B01AC01BD01CF010895EE0FBE
:10178000FF1F881F8BBF0790F691E02D1994AA1BAD
:10179000BB1B51E107C0AA1FBB1FA617B70710F05C
:1017A000A61BB70B881F991F5A95A9F7809590958E
:1017B000BC01CD0108950F931F93CF93DF93823027
:1017C000910510F482E090E0E091AE03F091AF0358
:1017D00030E020E0B0E0A0E0309799F42115310529
:1017E00009F44AC0281B390B24303105D8F58A8109
:1017F0009B816115710589F1FB0193838283FE0151
:1018000011C0408151810281138148175907E0F0CE
:101810004817590799F4109761F012960C93129794
:1018200013961C933296CF01DF91CF911F910F91A8
:1018300008950093AE031093AF03F4CF2115310543
:1018400051F04217530738F0A901DB019A01BD019D
:10185000DF01F801C1CFEF01F9CF9093AF0380937F
:10186000AE03CDCFFE01E20FF31F8193919322507F
:10187000310939832883D7CF2091AC033091AD0350
:10188000232B41F420910202309103023093AD03E7
:101890002093AC0320910002309101022115310503
:1018A00041F42DB73EB74091040250910502241B2C
:1018B000350BE091AC03F091AD03E217F307A0F410
:1018C0002E1B3F0B2817390778F0AC014E5F5F4F96
:1018D0002417350748F04E0F5F1F5093AD03409318
:1018E000AC03819391939FCFF0E0E0E09CCFCF9346
:1018F000DF930097E9F0FC01329713821282A091E6
:10190000AE03B091AF03ED0130E020E01097A1F4F9
:1019100020813181820F931F2091AC033091AD0360
:101920002817390709F061C0F093AD03E093AC03C9
:10193000DF91CF910895EA01CE17DF07E8F54A81DC
:101940005B819E0141155105B1F7E901FB83EA83F3
:1019500049915991C40FD51FEC17FD0761F480819F
:1019600091810296840F951FE90199838883828172
:1019700093819B838A83F0E0E0E012968D919C91A5
:1019800013970097B9F52D913C911197CD010296CF
:10199000820F931F2091AC033091AD0328173907B4
:1019A00039F6309751F51092AF031092AE03B09311
:1019B000AD03A093AC03BCCFD383C28340815181DC
:1019C000840F951FC817D90761F44E5F5F4F888158
:1019D0009981480F591F518340838A819B8193834A
:1019E00082832115310509F0B0CFF093AF03E09366
:1019F000AE039ECFFD01DC01C0CF13821282D7CF90
:101A000011E0C7E3D1E000E006C0802FFE010E9494
:101A1000BF0B2196011DC833D10780E00807A9F745
:041A2000F894FFCF68
:101A24000000B00380000000000001026B01980177
:101A34004E02C901A701BB016E616E00696E6600AA
:101A44006F7666000D0A0051554555453A2065727A
:101A5400726F722064756520746F20756E6465738F
:101A6400697261626C652073697A6520666F7220A1
:101A740071756575652073697A652E0051554555F4
:101A8400453A20696E73756666696369656E74208C
:101A94006D656D6F727920746F20696E6974696108
:101AA4006C697A652074656D706F726172792071EA
:101AB400756575652E0051554555453A2063616E2F
:101AC400277420706F70206974656D2066726F6D65
:101AD4002071756575653A20717565756520697342
:0A1AE40020656D7074792E003B0040
:00000001FF
