:020000040000FA
:100000000C9453000C947B000C947B000C947B00AC
:100010000C947B000C947B000C947B000C947B0074
:100020000C947B000C947B000C947B000C94E502F8
:100030000C947B000C947B000C947B000C947B0054
:100040000C9443020C947B000C94B3020C948D022C
:100050000C947B000C947B000C947B000C947B0034
:100060000C947B000C947B004E414E494E495459F0
:10007000494E46CDCCCC3D0AD7233C17B7D1387773
:10008000CC2B329595E6241FB14F0A000020410089
:1000900000C84200401C4620BCBE4CCA1B0E5AAED3
:1000A000C59D7400FF0411241FBECFEFD8E0DEBF52
:1000B000CDBF21E0A4E2B1E001C01D92A83DB2078E
:1000C000E1F711E0A0E0B1E0EEE9F6E102C0059051
:1000D0000D92A432B107D9F710E0C3E5D0E004C017
:1000E0002197FE010E945509C235D107C9F70E9428
:1000F00057030C944D0B0C940000AF92BF92CF921B
:10010000DF92EF92FF920F931F93CF93DF936C01D7
:100110007B018B01040F151FEB015E01AE18BF08B8
:10012000C017D10759F06991D601ED91FC9101906A
:10013000F081E02DC6010995892B79F7C501DF9182
:10014000CF911F910F91FF90EF90DF90CF90BF90D4
:10015000AF900895FC01538D448D252F30E0842FFE
:1001600090E0821B930B541710F0CF9608950197DF
:100170000895FC01918D828D981761F0A28DAE0FCC
:10018000BF2FB11D5D968C91928D9F5F9F73928F53
:1001900090E008958FEF9FEF08952FB7F894809126
:1001A000310190913201A0913301B09134012FBF00
:1001B00080933D0190933E01A0933F01B093400195
:1001C00085E391E00E94B90097FF26C02FB7F8940D
:1001D0008091310190913201A0913301B0913401AD
:1001E0002FBF40913D0150913E0160913F017091C0
:1001F0004001841B950BA60BB70B40913901509120
:100200003A0160913B0170913C0184179507A60764
:10021000B707B0F28FEF9FEF0895FC01918D828DAB
:10022000981731F0828DE80FF11D858D90E00895CB
:100230008FEF9FEF0895FC01918D228D892F90E023
:10024000805C9F4F821B91098F739927089585E3E6
:1002500091E00E941B0121E0892B09F420E0822F0C
:10026000089580E090E0892B29F00E9427018111F8
:100270000C9400000895FC01A48DA80FB92FB11DA6
:10028000A35ABF4F2C91848D90E001968F739927CC
:10029000848FA689B7892C93A089B1898C918370AA
:1002A00080648C93938D848D981306C00288F389A3
:1002B000E02D80818F7D80830895EF92FF920F93D0
:1002C0001F93CF93DF93EC0181E0888F9B8D8C8D02
:1002D00098131AC0E889F989808185FF15C09FB7F6
:1002E000F894EE89FF896083E889F98980818370B9
:1002F000806480839FBF81E090E0DF91CF911F9168
:100300000F91FF90EF900895F62E0B8D10E00F5F88
:100310001F4F0F731127E02E8C8D8E110CC00FB65E
:1003200007FCFACFE889F989808185FFF5CFCE01F6
:100330000E943B01F1CFEB8DEC0FFD2FF11DE35A35
:10034000FF4FF0829FB7F8940B8FEA89FB89808179
:100350008062CFCFCF93DF93EC01888D8823B9F0F3
:10036000AA89BB89E889F9898C9185FD03C08081C0
:1003700086FD0DC00FB607FCF7CF8C9185FFF2CF3D
:10038000808185FFEDCFCE010E943B01E9CFDF9157
:10039000CF910895FC0101900020E9F73197AF015A
:1003A000481B590BBC0185E391E00C947D008F92B2
:1003B0009F92AF92BF920F931F93CF93DF93CDB7CE
:1003C000DEB7A1970FB6F894DEBF0FBECDBF19A25E
:1003D000423008F44AE08E010F5D1F4F842E912CAD
:1003E000B12CA12CA50194010E943309E62FB9017B
:1003F000CA01EA30F4F4E05DD801EE938D01232BBD
:10040000242B252B79F790E080E0109719F0CD018F
:100410000E94CA01A1960FB6F894DEBF0FBECDBFF1
:10042000DF91CF911F910F91BF90AF909F908F90D0
:100430000895E95CE1CF0F931F93CF93DF93EC0115
:1004400088819981009759F02A813B8126173707C7
:1004500030F081E0DF91CF911F910F9108958B01D2
:100460006F5F7F4F0E94800A009759F099838883BD
:100470001B830A832C813D81232B59F7FC011082B9
:10048000E8CF80E0E7CF1F920F920FB60F921124B2
:100490002F933F938F939F93AF93BF93809131019D
:1004A00090913201A0913301B0913401309130012B
:1004B00023E0230F2D3758F50196A11DB11D209380
:1004C00030018093310190933201A0933301B093B6
:1004D000340180912C0190912D01A0912E01B091B9
:1004E0002F010196A11DB11D80932C0190932D0128
:1004F000A0932E01B0932F01BF91AF919F918F9147
:100500003F912F910F900FBE0F901F90189526E8E6
:10051000230F0296A11DB11DD2CF1F920F920FB6CD
:100520000F9211242F933F934F935F936F937F9379
:100530008F939F93AF93BF93EF93FF9385E391E0E6
:100540000E943B01FF91EF91BF91AF919F918F91DD
:100550007F916F915F914F913F912F910F900FBEBF
:100560000F901F9018951F920F920FB60F921124A3
:100570002F938F939F93EF93FF93E0914501F09119
:1005800046018081E0914B01F0914C0182FD1BC03E
:10059000908180914E018F5F8F7320914F01821760
:1005A00041F0E0914E01F0E0EB5CFE4F958F8093BF
:1005B0004E01FF91EF919F918F912F910F900FBE60
:1005C0000F901F9018958081F4CF1F920F920FB655
:1005D0000F9211242F933F934F935F936F937F93C9
:1005E0008F939F93AF93BF93EF93FF9310928500E8
:1005F0001092840080918800909189008F3F9F47DE
:1006000080F180916F008D7F80936F002A982C98E5
:10061000609188007091890090E080E04AE00E943B
:10062000D70181E291E00E94CA014AE06FEF7FE7C3
:1006300080E090E00E94D7018BE191E00E94CA0126
:10064000FF91EF91BF91AF919F918F917F916F91AA
:100650005F914F913F912F910F900FBE0F901F9080
:10066000189585B194E0892785B91A99D1CF2B992E
:100670001BC08FEF9FEF092E000CAA0BBB0B409104
:100680002401509125016091260170912701840F6A
:10069000951FA61FB71F8093240190932501A09357
:1006A0002601B0932701B4CF81E090E0E4CFCF934F
:1006B000DF93CDB7DEB728970FB6F894DEBF0FBE35
:1006C000CDBF789484B5826084BD84B5816084BDDB
:1006D00085B5826085BD85B5816085BD80916E00E0
:1006E000816080936E001092810080918100826011
:1006F000809381008091810081608093810080914E
:1007000080008160809380008091B100846080933C
:10071000B1008091B00081608093B00080917A0038
:10072000846080937A0080917A00826080937A005E
:1007300080917A00816080937A0080917A0080684D
:1007400080937A001092C100E0914501F09146013A
:1007500082E08083E0914101F09142011082E091BA
:100760004301F09144018FEC808310924D01E091A0
:100770004901F0914A0186E08083E0914701F091C0
:100780004801808180618083E0914701F0914801B8
:10079000808188608083E0914701F09148018081E9
:1007A00080688083E0914701F091480180818F7DCE
:1007B000808384B18C6184B985B185B98AB18AB9E5
:1007C0008BB1806C8BB91092800080918100816028
:1007D00080938100809181008D7F80938100809142
:1007E00081008460809381001092850010928400C3
:1007F0001092890010928800AA24AA948FE7B82E3C
:1008000000E010E085E391E00E941B01892B09F4D0
:10081000C3C01A8219821C821B821E821D8270E054
:1008200060E0CE0101960E941B0229813A8181116C
:100830002CC02115310519F0C9010E94F7091A824F
:1008400019821E821D821C821B820E94CD0097FD90
:1008500024C08F831886ED80FE808FEFE81AF80A97
:10086000B701CE0101960E941B02882371F32981F2
:100870003A818D819E81BE01695F7F4F820F931FF8
:100880000E94460BFE82ED82E0CF1E821D826DE14A
:1008900071E0C9010E94460BD8CF89819A81C12C91
:1008A000D12C7601009721F00E942C056B017C0170
:1008B000C0922801D0922901E0922A01F0922B01E6
:1008C00089819A81009711F00E94F7092FE632E1A1
:1008D00043E85AE3C701B6010E942E09181654F0E6
:1008E0002FE632E143E85AEBC701B6010E94A106A8
:1008F00087FF80C020E030E0A901C701B6010E9457
:100900002E09181624F0F7FAF094F7F8F09420E086
:1009100030E048E453E4C701B6010E9407079B0199
:10092000AC010E941A089B01AC0160E070E48CE904
:1009300095E40E94860820E030E04AE751E40E94F6
:1009400007070E94F80870938900609388008091DF
:100950006F00826080936F0020E030E0A901609119
:1009600028017091290180912A0190912B010E9408
:100970002E0918160CF42B9A20E030E0A9016091A2
:1009800028017091290180912A0190912B010E94E8
:10099000A10687FD2B982C9A4F990FC080916F006C
:1009A0008D7F80936F002A982C9888E191E00E94B7
:1009B000CA018BE191E00E94CA014E990FC080915B
:1009C0006F008D7F80936F002A982C988EE191E0C4
:1009D0000E94CA018BE191E00E94CA010115110534
:1009E00009F410CF0E942701882309F40BCF0E943D
:1009F000000008CFB0928900A0928800CDCFE5E337
:100A0000F1E01382128288EE93E0A0E0B0E08483EC
:100A10009583A683B7838AE091E09183808385ECF8
:100A200090E09587848784EC90E09787868780ECB8
:100A300090E0918B808B81EC90E0938B828B82ECA9
:100A400090E0958B848B86EC90E0978B868B118E53
:100A5000128E138E148E0895662777270C94300516
:100A6000B0E0A0E0E6E3F5E00C94D9075C017B017F
:100A70006115710519F0DB018D939C9385010F5F62
:100A80001F4FF501D0818D2F90E00E9480066C01F0
:100A9000892BB9F5DD32B9F50F5F1F4FD5011196DE
:100AA000DC91C1E05801F1E0AF1AB10843E050E039
:100AB00060E770E0C5010E948906892B69F568012D
:100AC00082E0C80ED11C45E050E06BE670E0C60144
:100AD0000E948906892B21F4680197E0C90ED11C78
:100AE000E114F10419F0D701CD92DC9260E070E0DE
:100AF00080E89FEFC111FFC060E070E080E89FE7F1
:100B0000FAC05801BBCFDB3229F485010E5F1F4FBD
:100B1000F501D181C0E0C6CF43E050E068E670E067
:100B2000C5010E948906892BE9F0F80110E000E078
:100B300020E030E0A9015F01B0ED8B2E8D0E89E041
:100B40008815C8F19C2E689491F88C2F8870C2FF8C
:100B500016C0811102C00F5F1F4F3196D501DC9185
:100B6000C92DE9CFE114F10429F00E5F1F4FF70101
:100B70001183008360E070E080EC9FE7BCC08823B5
:100B800011F001501109A5E0B0E00E94C8079B01D7
:100B9000AC01220F331F441F551F280D311D411D6D
:100BA000511D283999E93907490799E15907A8F2F0
:100BB000C6609C2ED2CFAEEF8A1206C0C3FD3CC0E9
:100BC0009C2E689493F8C9CFDF7DD534A9F5808138
:100BD0008D3239F4C061DF011296818162E070E0EC
:100BE00006C0DF018B32C1F3119661E070E08053E3
:100BF0005D01A61AB70A8A30F8F4E0E8CE16ECE0F8
:100C0000DE065CF4B601660F771F660F771FC60E0F
:100C1000D71ECC0CDD1CC80ED11C5D01FFEFAF1A36
:100C2000BF0A8C9180538A30A8F1C4FF03C0D194CD
:100C3000C194D1080C0D1D1DC1FF09C0E114F104C0
:100C400031F081E0A81AB108D701AD92BC92CA0177
:100C5000B9010E94A606C370C33009F490584B0135
:100C60005C0120E030E0A9010E94A106882309F47C
:100C700040C0CFE9D0E017FF05C0119501951109DB
:100C8000C7E8D0E06E01B8E1CB1AD10880E2E82EC7
:100C9000F12C0FC0D501B1CFFE01259135914591C1
:100CA00054910E191F09C501B4010E9407074B0199
:100CB0005C01D501C4010E151F0574F72497F59446
:100CC000E794CC16DD06A9F78A2F880F8B2F881F93
:100CD0008F3F49F020E030E0A901C501B4010E9436
:100CE000A106811106C082E290E09093D301809327
:100CF000D201C501B401CDB7DEB7ECE00C94F50725
:100D000091110C947407803219F089508550C8F7FE
:100D10000895FB01DC014150504088F08D918134F1
:100D20001CF08B350CF4805E659161341CF06B35E2
:100D30000CF4605E861B611171F3990B0895881B9A
:100D4000FCCF0E94E30608F481E00895E89409C00E
:100D500097FB3EF490958095709561957F4F8F4FEE
:100D60009F4F9923A9F0F92F96E9BB279395F69504
:100D7000879577956795B795F111F8CFFAF4BB0F82
:100D800011F460FF1BC06F5F7F4F8F4F9F4F16C0E6
:100D9000882311F096E911C0772321F09EE8872F70
:100DA000762F05C0662371F096E8862F70E060E02C
:100DB0002AF09A95660F771F881FDAF7880F9695A5
:100DC000879597F90895990F0008550FAA0BE0E849
:100DD000FEEF16161706E807F907C0F012161306FD
:100DE000E407F50798F0621B730B840B950B39F43D
:100DF0000A2661F0232B242B252B21F408950A26A3
:100E000009F4A140A6958FEF811D811D08950E94D0
:100E10001A070C948E070E94800738F00E948707FB
:100E200020F0952311F00C9477070C947D07112482
:100E30000C94C2070E949F0770F3959FC1F3950F12
:100E400050E0551F629FF001729FBB27F00DB11D4E
:100E5000639FAA27F00DB11DAA1F649F6627B00DDE
:100E6000A11D661F829F2227B00DA11D621F739FC7
:100E7000B00DA11D621F839FA00D611D221F749FD5
:100E80003327A00D611D231F849F600D211D822F1C
:100E9000762F6A2F11249F5750409AF0F1F0882343
:100EA0004AF0EE0FFF1FBB1F661F771F881F915070
:100EB0005040A9F79E3F510580F00C9477070C94A1
:100EC000C2075F3FE4F3983ED4F386957795679524
:100ED000B795F795E7959F5FC1F7FE2B880F911D9A
:100EE0009695879597F9089599278827089597F9F2
:100EF0009F6780E870E060E008959FEF80EC0895C0
:100F000000240A94161617061806090608950024E8
:100F10000A9412161306140605060895092E039462
:100F2000000C11F4882352F0BB0F40F4BF2B11F4D6
:100F300060FF04C06F5F7F4F8F4F9F4F089557FD35
:100F40009058440F551F59F05F3F71F04795880F37
:100F500097FB991F61F09F3F79F0879508951216CE
:100F600013061406551FF2CF4695F1DF08C016167A
:100F700017061806991FF1CF86957105610508942B
:100F80000895E894BB2766277727CB0197F9089542
:100F90000E940A08A59F900DB49F900DA49F800DFC
:100FA000911D112408952F923F924F925F926F925C
:100FB0007F928F929F92AF92BF92CF92DF92EF92E9
:100FC000FF920F931F93CF93DF93CDB7DEB7CA1B6A
:100FD000DB0B0FB6F894DEBF0FBECDBF09942A8895
:100FE000398848885F846E847D848C849B84AA843D
:100FF000B984C884DF80EE80FD800C811B81AA81CA
:10100000B981CE0FD11D0FB6F894DEBF0FBECDBF94
:10101000ED010895A29FB001B39FC001A39F700D81
:10102000811D1124911DB29F700D811D1124911DF0
:1010300008955058BB27AA270E9431080C948E07A8
:101040000E94800738F00E94870720F039F49F3F04
:1010500019F426F40C947D070EF4E095E7FB0C944C
:101060007707E92F0E949F0758F3BA1762077307A3
:101070008407950720F079F4A6F50C94C1070EF4C7
:10108000E0950B2EBA2FA02D0B01B90190010C0198
:10109000CA01A0011124FF27591B99F0593F50F4B0
:1010A000503E68F11A16F040A22F232F342F442708
:1010B000585FF3CF469537952795A795F040539500
:1010C000C9F77EF41F16BA0B620B730B840BBAF0D0
:1010D0009150A1F0FF0FBB1F661F771F881FC2F73B
:1010E0000EC0BA0F621F731F841F48F4879577954F
:1010F0006795B795F7959E3F08F0B0CF9395880F09
:1011000008F09927EE0F9795879508950E949A0801
:101110000C948E070E94870758F00E94800740F0C9
:1011200029F45F3F29F00C94770751110C94C20702
:101130000C947D070E949F0768F39923B1F3552310
:1011400091F3951B550BBB27AA27621773078407DA
:1011500038F09F5F5F4F220F331F441FAA1FA9F370
:1011600035D00E2E3AF0E0E832D091505040E6955E
:10117000001CCAF72BD0FE2F29D0660F771F881FBF
:10118000BB1F261737074807AB07B0E809F0BB0BB2
:10119000802DBF01FF2793585F4F3AF09E3F5105C6
:1011A00078F00C9477070C94C2075F3FE4F3983E05
:1011B000D4F3869577956795B795F7959F5FC9F7AF
:1011C000880F911D9695879597F90895E1E0660F30
:1011D000771F881FBB1F621773078407BA0720F0A9
:1011E000621B730B840BBA0BEE1F88F7E095089512
:1011F0000E94FF086894B1110C94C20708950E94E0
:10120000A70788F09F5798F0B92F9927B751B0F0EA
:10121000E1F0660F771F881F991F1AF0BA95C9F77A
:1012200014C0B13091F00E94C107B1E008950C9450
:10123000C107672F782F8827B85F39F0B93FCCF303
:10124000869577956795B395D9F73EF490958095F7
:10125000709561957F4F8F4F9F4F08950E94E306D1
:1012600008F48FEF0895A1E21A2EAA1BBB1BFD0103
:101270000DC0AA1FBB1FEE1FFF1FA217B307E40775
:10128000F50720F0A21BB30BE40BF50B661F771FCD
:10129000881F991F1A9469F76095709580959095AD
:1012A0009B01AC01BD01CF010895EE0FFF1F05901A
:1012B000F491E02D09940F931F93CF93DF93823025
:1012C000910510F482E090E0E091D601F091D70111
:1012D00030E020E0B0E0A0E0309799F4211531052E
:1012E00009F44AC0281B390B24303105D8F58A810E
:1012F0009B816115710589F1FB0193838283FE0156
:1013000011C0408151810281138148175907E0F0D3
:101310004817590799F4109761F012960C93129799
:1013200013961C933296CF01DF91CF911F910F91AD
:1013300008950093D6011093D701F4CF21153105FC
:1013400051F04217530738F0A901DB019A01BD01A2
:10135000DF01F801C1CFEF01F9CF9093D70180935E
:10136000D601CDCFFE01E20FF31F8193919322505E
:10137000310939832883D7CF2091D4013091D50109
:10138000232B41F420910201309103013093D501C8
:101390002093D401209100013091010121153105E4
:1013A00041F42DB73EB74091040150910501241B33
:1013B000350BE091D401F091D501E217F307A0F4C9
:1013C0002E1B3F0B2817390778F0AC014E5F5F4F9B
:1013D0002417350748F04E0F5F1F5093D5014093F7
:1013E000D401819391939FCFF0E0E0E09CCFCF9325
:1013F000DF930097E9F0FC01329713821282A091EB
:10140000D601B091D701ED0130E020E01097A1F4B2
:1014100020813181820F931F2091D4013091D50119
:101420002817390709F061C0F093D501E093D40182
:10143000DF91CF910895EA01CE17DF07E8F54A81E1
:101440005B819E0141155105B1F7E901FB83EA83F8
:1014500049915991C40FD51FEC17FD0761F48081A4
:1014600091810296840F951FE90199838883828177
:1014700093819B838A83F0E0E0E012968D919C91AA
:1014800013970097B9F52D913C911197CD010296D4
:10149000820F931F2091D4013091D501281739076D
:1014A00039F6309751F51092D7011092D601B093CA
:1014B000D501A093D401BCCFD383C2834081518195
:1014C000840F951FC817D90761F44E5F5F4F88815D
:1014D0009981480F591F518340838A819B8193834F
:1014E00082832115310509F0B0CFF093D701E09345
:1014F000D6019ECFFD01DC01C0CF13821282D7CF6F
:10150000B0E0A0E0E6E8FAE00C94D5078C01009783
:1015100051F4CB010E945B098C01C801CDB7DEB745
:10152000E0E10C94F107FC01E60FF71F9C0122504B
:101530003109E217F30708F49DC0D901CD91DC9180
:101540001197C617D70798F0C530D10530F3CE01F3
:1015500004978617970708F3C61BD70B2297C193EA
:10156000D1936D937C93CF010E94F709D6CF5B0195
:10157000AC1ABD0A4C018C0E9D1EA091D601B091F3
:10158000D701512C412CF12CE12C109731F5809191
:10159000D4019091D5018815990509F05CC04616D3
:1015A000570608F058C08091000190910101009702
:1015B00041F48DB79EB74091040150910501841B01
:1015C000950BE817F90708F055C0F093D501E093A3
:1015D000D401F90171836083A0CF8D919C91119703
:1015E00012966C90129713967C901397A815B905D4
:1015F00059F56C0142E0C40ED11CCA14DB0420F181
:10160000AC014A195B09DA011296159780F06282E3
:10161000738251834083D9016D937C93E114F1046B
:1016200071F0D7011396FC93EE93129776CF229622
:101630008C0F9D1FF90191838083F301EFCFF0930D
:10164000D701E093D60169CF4816590608F42C015A
:101650007D01D3019ACFCB010E945B097C010097E9
:1016600049F0AE01B8010E943D0BC8010E94F70984
:10167000870153CF10E000E050CFFB01DC0102C036
:1016800001900D9241505040D8F70895FB01DC01C4
:1016900001900D920020E1F70895F894FFCF00002B
:1016A000D8018000000000005D017D00AA00AA01B1
:1016B0001B01B9000D014C53000D0A004C490020DC
:0216C000000028
:107E0000112484B714BE81FFF0D085E080938100F7
:107E100082E08093C00088E18093C10086E0809377
:107E2000C20080E18093C4008EE0C9D0259A86E02C
:107E300020E33CEF91E0309385002093840096BBD3
:107E4000B09BFECF1D9AA8958150A9F7CC24DD24C4
:107E500088248394B5E0AB2EA1E19A2EF3E0BF2EE7
:107E6000A2D0813461F49FD0082FAFD0023811F036
:107E7000013811F484E001C083E08DD089C08234E0
:107E800011F484E103C0853419F485E0A6D080C0E4
:107E9000853579F488D0E82EFF2485D0082F10E0AE
:107EA000102F00270E291F29000F111F8ED06801E7
:107EB0006FC0863521F484E090D080E0DECF843638
:107EC00009F040C070D06FD0082F6DD080E0C81688
:107ED00080E7D80618F4F601B7BEE895C0E0D1E017
:107EE00062D089930C17E1F7F0E0CF16F0E7DF06D8
:107EF00018F0F601B7BEE89568D007B600FCFDCFD4
:107F0000A601A0E0B1E02C9130E011968C91119780
:107F100090E0982F8827822B932B1296FA010C0160
:107F200087BEE89511244E5F5F4FF1E0A038BF0790
:107F300051F7F601A7BEE89507B600FCFDCF97BE46
:107F4000E89526C08437B1F42ED02DD0F82E2BD052
:107F50003CD0F601EF2C8F010F5F1F4F84911BD097
:107F6000EA94F801C1F70894C11CD11CFA94CF0C13
:107F7000D11C0EC0853739F428D08EE10CD085E9AC
:107F80000AD08FE07ACF813511F488E018D01DD067
:107F900080E101D065CF982F8091C00085FFFCCF94
:107FA0009093C60008958091C00087FFFCCF809118
:107FB000C00084FD01C0A8958091C6000895E0E648
:107FC000F0E098E1908380830895EDDF803219F02E
:107FD00088E0F5DFFFCF84E1DECF1F93182FE3DFCA
:107FE0001150E9F7F2DF1F91089580E0E8DFEE27F6
:047FF000FF270994CA
:027FFE00040479
:00000001FF
