:020000040000FA
:100000000C94E0000C9408010C9408010C94080175
:100010000C9408010C9408010C9408010C9408013C
:100020000C9408010C9408010C9408010C9408012C
:100030000C9408010C9408010C9408010C9408011C
:100040000C946E040C9408010C943C040C9416045B
:100050000C9408010C9408010C9408010C940801FC
:100060000C9408010C94080100407A10F35A00A087
:10007000724E18090010A5D4E80000E87648170071
:1000800000E40B54020000CA9A3B000000E1F505B1
:10009000000080969800000040420F000000A086FB
:1000A00001000000102700000000E803000000002D
:1000B0006400000000000A000000000001000000D1
:1000C00000002C76D888DC674F0823DFC1DFAE59EB
:1000D000E1B1B796E5E3E453C63AE651997696E87E
:1000E000E6C28426EB898C9B62ED407C6FFCEFBC02
:1000F0009C9F40F2BAA56FA5F490055A2AF75C932D
:100100006B6CF9676DC11BFCE0E40D47FEF520E662
:10011000B500D0ED902E0300943577050080841E45
:10012000080000204E0A000000C80C333333330FA0
:10013000986E12831141EF8D2114893BE65516CF3D
:10014000FEE6DB18D1844B381BF77C1D901DA4BB49
:10015000E424203284725E228100C9F124ECA1E5FE
:100160003D2700000000240027002A0000000000B6
:10017000250028002B000000000023002600290095
:10018000040404040404040402020202020203033D
:100190000303030301020408102040800102040845
:1001A00010200102040810200000000800020100D5
:1001B0000003040700000000000000003205DA0719
:1001C00011241FBECFEFD8E0DEBFCDBF22E0AEEBE3
:1001D000B1E001C01D92AC38B207E1F711E0A0E038
:1001E000B1E0E2E5FDE102C005900D92AE3BB10742
:1001F000D9F710E0CFEDD0E004C02197FE010E94B6
:10020000A40CCE3DD107C9F70E94B9050C949C0EF1
:100210000C940000AF92BF92CF92DF92EF92FF92C8
:100220000F931F93CF93DF936C017B018B01040F1E
:10023000151FEB015E01AE18BF08C017D10759F0BA
:100240006991D601ED91FC910190F081E02DC601FC
:100250000995892B79F7C501DF91CF911F910F91F6
:10026000FF90EF90DF90CF90BF90AF900895FC018A
:10027000538D448D252F30E0842F90E0821B930B0B
:10028000541710F0CF96089501970895FC01918DB1
:10029000828D981761F0A28DAE0FBF2FB11D5D96B4
:1002A0008C91928D9F5F9F73928F90E008958FEF56
:1002B0009FEF0895FC01918D828D981731F0828D0A
:1002C000E80FF11D858D90E008958FEF9FEF089561
:1002D000FC01918D228D892F90E0805C9F4F821BC5
:1002E00091098F739927089583ED91E00E94680129
:1002F00021E0892B09F420E0822F089580E090E02E
:10030000892B29F00E94740181110C94000008953A
:10031000FC01A48DA80FB92FB11DA35ABF4F2C917A
:10032000848D90E001968F739927848FA689B78971
:100330002C93A089B1898C91837080648C93938D68
:10034000848D981306C00288F389E02D80818F7D0B
:1003500080830895EF92FF920F931F93CF93DF93C3
:10036000EC0181E0888F9B8D8C8D98131AC0E889F1
:10037000F989808185FF15C09FB7F894EE89FF89C0
:100380006083E889F98980818370806480839FBF5E
:1003900081E090E0DF91CF911F910F91FF90EF905E
:1003A0000895F62E0B8D10E00F5F1F4F0F7311276E
:1003B000E02E8C8D8E110CC00FB607FCFACFE889A9
:1003C000F989808185FFF5CFCE010E948801F1CFA8
:1003D000EB8DEC0FFD2FF11DE35AFF4FF0829FB71D
:1003E000F8940B8FEA89FB8980818062CFCFCF930D
:1003F000DF93EC01888D8823B9F0AA89BB89E8894D
:10040000F9898C9185FD03C0808186FD0DC00FB6F2
:1004100007FCF7CF8C9185FFF2CF808185FFEDCF70
:10042000CE010E948801E9CFDF91CF9108958330FA
:1004300081F028F4813099F08230A9F00895873056
:10044000A9F08830C9F08430B1F4809180008F7DAC
:1004500003C0809180008F7780938000089584B5D9
:100460008F7784BD089584B58F7DFBCF8091B000D8
:100470008F778093B00008958091B0008F7DF9CF81
:10048000CF93DF93EBEAF1E08491E7E9F1E0D491D7
:10049000E3E8F1E0C491CC23A1F081110E9417029E
:1004A000EC2FF0E0EE0FFF1FEA58FE4FA591B4913C
:1004B000EC91ED2381E090E009F480E0DF91CF91B1
:1004C000089580E090E0FACF1F93CF93DF93282F19
:1004D00030E0F901E855FE4F8491F901EC56FE4FEA
:1004E000D491F901E058FE4FC491CC23A9F0162F06
:1004F00081110E941702EC2FF0E0EE0FFF1FE4596C
:10050000FE4FA591B4918FB7F894EC91111108C0EA
:10051000D095DE23DC938FBFDF91CF911F9108959B
:10052000DE2BF8CFCF93DF9390E0FC01EC56FE4F2B
:10053000249180589E4FFC0184918823D1F090E053
:10054000880F991FFC01EE59FE4FA591B491FC0153
:10055000E459FE4FC591D491623071F49FB7F8947D
:100560003C91822F809583238C93E8812E2B2883C6
:100570009FBFDF91CF9108958FB7F894EC912E2B08
:100580002C938FBFF6CFCF92DF92EF92FF92CF9353
:1005900060E082E00E9464020E944002892BE1F741
:1005A000C8E1C12CD12C760161E082E00E94640296
:1005B000CC0CDD1CEE1CFF1C60E082E00E9464029B
:1005C0000E944002892B29F02FEFC21AD20AE20AB8
:1005D000F20AC15049F761E082E00E94640260E0E3
:1005E00082E00E946402C701B60180580E94350A69
:1005F00028E430E746EE53E40E94D40B2091C70173
:100600003091C8014091C9015091CA010E94670B05
:10061000CF91FF90EF90DF90CF900895EC0100977D
:1006200039F00E94230568E171E0CE010E942305A4
:100630000E9412058F929F92AF92BF92CF92DF924B
:10064000EF92FF920F931F93CF93DF93EC016BE137
:1006500071E018161906DCF5880F991F880F991F8D
:100660000E94AA0C8C01009781F180907C029090EE
:100670007D02E0917802F0917902A0907E02B09024
:100680007F02C0907A02D0907B027C0130E020E0B3
:100690002815390514F5C9018A0D9B1DB6010E9464
:1006A0007C0CDC01AA0FBB1FAA0FBB1FAE0FBF1F24
:1006B0004D915D916D917C91D7014D935D936D93BB
:1006C0007D937D012F5F3F4FE3CF60E571E0809127
:1006D0007602909177020E940E03CF010E94460D90
:1006E000109379020093780210927F0210927E029A
:1006F00080917C0290917D02909381028093800290
:10070000D0937B02C0937A02DF91CF911F910F911A
:10071000FF90EF90DF90CF90BF90AF909F908F9021
:1007200008950F931F93CF93DF93EC0188819981F4
:10073000009759F02A813B812617370730F081E076
:10074000DF91CF911F910F9108958B016F5F7F4FC4
:100750000E94CF0D009759F0998388831B830A83E9
:100760002C813D81232B59F7FC011082E8CF80E0DA
:10077000E7CFEF92FF920F931F93CF93DF93611513
:10078000710541F480E0DF91CF911F910F91FF90AF
:10079000EF90089541155105B1F07B01EC010C81FA
:1007A0001D81040F151FB8010E949103882351F386
:1007B000288139818C819D81B701820F931F0E940E
:1007C000950E1D830C8381E0DECFEF92FF920F9395
:1007D0001F93CF93DF93CDB7DEB764970FB6F8942E
:1007E000DEBF0FBECDBF7C01CB01BA018E010F5F12
:1007F0001F4F22E044E00E94E007FC01019000202E
:10080000E9F73197AF01481B590BBC01C7010E94A2
:10081000B90364960FB6F894DEBF0FBECDBFDF916B
:10082000CF911F910F91FF90EF9008951F920F921B
:100830000FB60F9211242F933F934F935F936F93B3
:100840007F938F939F93AF93BF93EF93FF9383ED2A
:1008500091E00E948801FF91EF91BF91AF919F912C
:100860008F917F916F915F914F913F912F910F9059
:100870000FBE0F901F9018951F920F920FB60F92F8
:1008800011242F938F939F93EF93FF93E091E301B4
:10089000F091E4018081E091E901F091EA0182FDAB
:1008A0001BC090818091EC018F5F8F732091ED01CF
:1008B000821741F0E091EC01F0E0ED52FE4F958F90
:1008C0008093EC01FF91EF919F918F912F910F9069
:1008D0000FBE0F901F9018958081F4CF1F920F923A
:1008E0000FB60F9211242F933F938F939F93AF9343
:1008F000BF938091BF019091C001A091C101B091BF
:10090000C2013091BE0123E0230F2D3758F5019627
:10091000A11DB11D2093BE018093BF019093C00122
:10092000A093C101B093C2018091C3019091C40111
:10093000A091C501B091C6010196A11DB11D809382
:10094000C3019093C401A093C501B093C601BF91A8
:10095000AF919F918F913F912F910F900FBE0F906C
:100960001F90189526E8230F0296A11DB11DD2CF26
:100970003FB7F8948091C3019091C401A091C50143
:10098000B091C60126B5A89B05C02F3F19F001966E
:10099000A11DB11D3FBFBA2FA92F982F8827BC01D9
:1009A000CD01620F711D811D911D42E0660F771F01
:1009B000881F991F4A95D1F708958F929F92AF9201
:1009C000BF92CF92DF92EF92FF920E94B8044B0148
:1009D0005C018AEFC82ED12CE12CF12C0E94B804C6
:1009E000681979098A099B09683E73408105910558
:1009F000A8F321E0C21AD108E108F10888EE880EB8
:100A000083E0981EA11CB11CC114D104E104F104BF
:100A100029F7FF90EF90DF90CF90BF90AF909F901D
:100A20008F90089561E08DE00E94920261E08DE078
:100A30000E9464020E94DD0460E08DE00E94640276
:100A40000E94DD04F3CFFB0101900020E9F731970C
:100A5000AF01461B570BDC01ED91FC910280F38145
:100A6000E02D09941092D6011092D50188EE93E002
:100A7000A0E0B0E08093D7019093D801A093D90172
:100A8000B093DA018AE091E09093D4018093D3018E
:100A900085EC90E09093E0018093DF0184EC90E09E
:100AA0009093E2018093E10180EC90E09093E40167
:100AB0008093E30181EC90E09093E6018093E5015F
:100AC00082EC90E09093E8018093E70186EC90E05F
:100AD0009093EA018093E9011092EC011092ED01EC
:100AE0001092EE011092EF0110927B0210927A02A6
:100AF00010927D0210927C0210927F0210927E0270
:100B00001092810210928002109277021092760267
:100B100088E090E00E94AA0C90937902809378027A
:100B2000892B11F40E94120582E090E090937B02E1
:100B300080937A0285E090E0909371028093700236
:100B40008DEC9CECACECBDE380937202909373024D
:100B5000A0937402B09375021092820210928302E5
:100B600010928402109285021092870210928602DF
:100B70000895CF93DF9300D000D000D0CDB7DEB77B
:100B8000789484B5826084BD84B5816084BD85B568
:100B9000826085BD85B5816085BD80916E00816074
:100BA00080936E001092810080918100826080931A
:100BB000810080918100816080938100809180001C
:100BC0008160809380008091B10084608093B10047
:100BD0008091B00081608093B00080917A00846041
:100BE00080937A0080917A00826080937A0080916D
:100BF0007A00816080937A0080917A008068809387
:100C00007A001092C10062E083E00E94920261E0EB
:100C100082E00E949202E091E301F091E40182E01F
:100C20008083E091DF01F091E0011082E091E10129
:100C3000F091E2018FEC80831092EB01E091E701EB
:100C4000F091E80186E08083E091E501F091E60112
:100C5000808180618083E091E501F091E6018081EF
:100C600088608083E091E501F091E60180818068F1
:100C70008083E091E501F091E60180818F7D8083A2
:100C80000EE110E0C12CD12C76010E94C30220E0BD
:100C900030E040EF51E40E94D40B9B01AC01C7014E
:100CA000B6010E94680B6B017C010150110969F7C4
:100CB000C092C701D092C801E092C901F092CA0166
:100CC000B0E02B2EB0E03B2E1A8219821C821B82D0
:100CD0001E821D8270E060E0CE0101960E949103A9
:100CE00029813A81811135C02115310519F0C901D9
:100CF0000E94460D1A8219821E821D821C821B824E
:100D000003E010E00E94C3026B017C01C092CF019E
:100D1000D092D001E092D101F092D20120918602CE
:100D200030918702809170029091710228173907E3
:100D30000CF474C020917C0230917D0221153105A4
:100D400081F46AE871E080917602909177020E94C6
:100D50000E031E821D826AE171E0C9010E94950E98
:100D6000CFCF609178027091790280917E0290914C
:100D70007F02AC014F5F5F4F50937F0240937E0232
:100D8000880F991F880F991F860F971FFC0180807D
:100D90009180A280B3802150310930937D0220934D
:100DA0007C0280917A0290917B024817590721F4C6
:100DB00010927F0210927E022115310591F0AC0154
:100DC00097FF02C04D5F5F4F5595479555954795E5
:100DD0004217530734F097FD0196959587950E9429
:100DE0001A03A5019401609182027091830280919F
:100DF0008402909185020E94670B60938202709337
:100E00008302809384029093850280918602909160
:100E100087020197909387028093860280917C02DB
:100E200090917D0220917A0230917B028217930784
:100E300021F4880F991F0E941A03209178023091A3
:100E400079028091800290918102AC014F5F5F4FE7
:100E50005093810240938002880F991F880F991F39
:100E6000820F931FFC01C082D182E282F3828091C3
:100E70007A0290917B024817590721F4109281025F
:100E80001092800280917C0290917D020196909355
:100E90007D0280937C0220918202309183024091F6
:100EA000840250918502C701B6010E94680B2B0194
:100EB0003C014092820250928302609284027092BE
:100EC0008502809186029091870201969093870215
:100ED000809386028090720290907302A0907402B8
:100EE000B09075026091700270917102072E000C33
:100EF000880B990B0E94370A9B01AC01C301B20118
:100F00000E94D40BA50194010E94D40B0E94460CB0
:100F1000072E000C880B990B0E94370AA50194013B
:100F20000E94720A6093CB017093CC018093CD0133
:100F30009093CE01B701A601CE0101960E94E50370
:100F400041E050E06CEB71E0CE0101960E94B903E4
:100F50004091CB015091CC016091CD017091CE01B7
:100F6000CE0101960E94E50341E050E069E171E0A5
:100F7000CE0101960E94B9030150110909F0C2CEB9
:100F80004D815E8169817A8183ED91E00E940A0141
:100F900089819A81009711F00E94460D2114310435
:100FA00009F492CE0E947401882309F48DCE0E9428
:100FB00000008ACE80917802909179020C94460DBF
:100FC000EF920F931F93CF93DF93E80134E047FD37
:100FD00034E1042E000C550B57FF03C05195419589
:100FE0005109E32E022F242FAE010E94FE07CE01ED
:100FF000DF91CF911F910F91EF900895A9E0B0E09C
:10100000E4E0F8E00C94360B6A01F22EB02E102FBB
:10101000FBE3AF2EA01608F41BE31F5F012F27E0B0
:10102000AE014F5F5F4F0E945D09BC018981982F1F
:101030009970913009F43FC09BE2E1FC04C09E2D01
:101040009170E0FC3AC05E2D5071E82FE87083FF8C
:1010500046C084E0911101C083E0EF2DE81B8F159D
:1010600008F0E0E0D6018E2F20E2552351F19923BC
:1010700029F0D6019C93C60101966C0196012D5F63
:101080003F4FE2FE24C08EE4D6018C9391E411968A
:101090009C93119712968C93D9018E2F90E2811117
:1010A0001BC0E20FF32FF11D10828EEF9FEF2996E8
:1010B000ECE00C94520B9DE2C6CF90E2C4CF2D938E
:1010C00081508111FCCFCE0ED11CE0E0D0CF8EE656
:1010D000D6018C9391E6DBCF9D938150E0CF482FD2
:1010E000447082FF3DC084E0911101C083E08F1500
:1010F00010F4EF2DE81BD6018E2F20E2552309F1C5
:10110000992329F0D6019C93C60101966C019601A2
:101110002D5F3F4FE2FE1BC089E4D6018C938EE425
:1011200011968C93119786E412968C93D9018E2F89
:1011300090E2882309F4B5CF9D938150FACF2D9387
:1011400081508111FCCFCE0ED11CE0E0D9CF89E6D1
:10115000D6018C938EE611968C93119786E6E4CF98
:101160009B0177FF02C030E020E0A1E0B0E09111E8
:1011700002C0B0E0A0E0F9013196AE0FBF1F8B2C8A
:10118000912CBB2009F461C05401EFEFAE1ABE0AE6
:10119000AA0DBB1DFA161B0619F014F04F2D4A1BA1
:1011A000511188C0E3FC59C07601A42FB0E2A1110F
:1011B0004FC0C40ED11C992309F45BC040E0D60196
:1011C0001196F60190836D01552309F448C0012F53
:1011D000060F9A81582F507184FF03C0913309F490
:1011E000015010160CF047C0093008F008E0EEE29C
:1011F000FE2E5B01A01AB10885019194819491089B
:101200002F3F320729F4D601FC92F60131966F0187
:101210006217730794F1021713077CF5DB01A21B19
:10122000B30BAA24A394B12CAC0EBD1EAA0DBB1DFA
:1012300011968C9121503109D60111962815390546
:10124000F4F0F60180836D01DBCFB12CA12CA0CF8F
:10125000F701B1937F01A150AACF9111B0CFD60170
:10126000942F50E302C05D9391509111FCCFC40EB6
:10127000D11C40E0ACCF01E0BACF80E3DBCF6217F6
:10128000730731F4963388F4953311F4552369F0DC
:10129000F6018083FD01842F90E2811108C0A40F24
:1012A000B11D1C9290E080E002CF81E3F1CF9193D9
:1012B0008150F3CF911183CF8ACF283008F027E0F7
:1012C0003327DA01990F311D87FD91600096610582
:1012D000710539F432602E5F3D9330E32A95E1F7D2
:1012E00008959F3F30F080387105610509F03C5F3B
:1012F0003C5F3D93913008F08068911DDF93CF9360
:101300001F930F93FF92EF92192F987F9695E92FD5
:1013100096959695E90FFF27EE53FF4F99273327B0
:10132000EE24FF24A701E70105900894079428F410
:10133000360FE71EF81E491F511D660F771F881FC5
:10134000991F0694A1F70590079428F4E70EF81E5C
:10135000491F561FC11D770F881F991F661F0694CE
:10136000A1F70590079428F4F80E491F561FC71FD0
:10137000D11D880F991F661F771F0694A1F705904E
:10138000079420F4490F561FC71FD81F990F661FD7
:10139000771F881F0694A9F784911095177041F064
:1013A000D695C79557954795F794E7941A95C1F741
:1013B000E8E6F0E068941590159135916591959166
:1013C00005907FE27395E118F10A430B560BC90BA8
:1013D000D009C0F7E10CF11E431F561FC91FD01DD5
:1013E0007EF4703311F48A95E6CFE894015030F022
:1013F000080F0AF40027021708F4202F2395022F64
:101400007A3328F079E37D932A95E9F710C07D932C
:101410002A9589F6069497956795379517951794A9
:10142000E118F10A430B560BC90BD00998F023952C
:101430007E9173957A3308F070E37C932013B8F7AC
:101440007E9170617D9330F0839571E37D9370E3BD
:101450002A95E1F71124EF90FF900F911F91CF9102
:10146000DF91992787FD90950895E89409C097FB2F
:101470003EF490958095709561957F4F8F4F9F4F6B
:101480009923A9F0F92F96E9BB279395F6958795AF
:1014900077956795B795F111F8CFFAF4BB0F11F472
:1014A00060FF1BC06F5F7F4F8F4F9F4F16C0882319
:1014B00011F096E911C0772321F09EE8872F762F4F
:1014C00005C0662371F096E8862F70E060E02AF090
:1014D0009A95660F771F881FDAF7880F969587957C
:1014E00097F908950E94850A0C94F60A0E94E80A6A
:1014F00038F00E94EF0A20F0952311F00C94DF0AD7
:101500000C94E50A11240C942A0B0E94070B70F32B
:10151000959FC1F3950F50E0551F629FF001729F98
:10152000BB27F00DB11D639FAA27F00DB11DAA1FA7
:10153000649F6627B00DA11D661F829F2227B00DF4
:10154000A11D621F739FB00DA11D621F839FA00D7F
:10155000611D221F749F3327A00D611D231F849FCF
:10156000600D211D822F762F6A2F11249F57504026
:101570009AF0F1F088234AF0EE0FFF1FBB1F661FA1
:10158000771F881F91505040A9F79E3F510580F06A
:101590000C94DF0A0C942A0B5F3FE4F3983ED4F3DB
:1015A000869577956795B795F795E7959F5FC1F70E
:1015B000FE2B880F911D9695879597F9089597F9B9
:1015C0009F6780E870E060E008959FEF80EC0895E9
:1015D00000240A9416161706180609060895002412
:1015E0000A9412161306140605060895092E03948C
:1015F000000C11F4882352F0BB0F40F4BF2B11F400
:1016000060FF04C06F5F7F4F8F4F9F4F089557FD5E
:101610009058440F551F59F05F3F71F04795880F60
:1016200097FB991F61F09F3F79F0879508951216F7
:1016300013061406551FF2CF4695F1DF08C01616A3
:1016400017061806991FF1CF869571056105089454
:101650000895E894BB2766277727CB0197F908956B
:101660002F923F924F925F926F927F928F929F92B2
:10167000AF92BF92CF92DF92EF92FF920F931F93A0
:10168000CF93DF93CDB7DEB7CA1BDB0B0FB6F89451
:10169000DEBF0FBECDBF09942A88398848885F8491
:1016A0006E847D848C849B84AA84B984C884DF8002
:1016B000EE80FD800C811B81AA81B981CE0FD11DE6
:1016C0000FB6F894DEBF0FBECDBFED0108955058A0
:1016D000BB27AA270E947F0B0C94F60A0E94E80AF7
:1016E00038F00E94EF0A20F039F49F3F19F426F4F5
:1016F0000C94E50A0EF4E095E7FB0C94DF0AE92F61
:101700000E94070B58F3BA176207730784079507FF
:1017100020F079F4A6F50C94290B0EF4E0950B2E2D
:10172000BA2FA02D0B01B90190010C01CA01A00133
:101730001124FF27591B99F0593F50F4503E68F18E
:101740001A16F040A22F232F342F4427585FF3CFCF
:10175000469537952795A795F0405395C9F77EF4A0
:101760001F16BA0B620B730B840BBAF09150A1F0E9
:10177000FF0FBB1F661F771F881FC2F70EC0BA0F6F
:10178000621F731F841F48F4879577956795B795F7
:10179000F7959E3F08F0B0CF9395880F08F09927F2
:1017A000EE0F9795879508950E94E80B0C94F60A22
:1017B0000E94EF0A58F00E94E80A40F029F45F3FC7
:1017C00029F00C94DF0A51110C942A0B0C94E50AB1
:1017D0000E94070B68F39923B1F3552391F3951BEE
:1017E000550BBB27AA2762177307840738F09F5F42
:1017F0005F4F220F331F441FAA1FA9F335D00E2EAF
:101800003AF0E0E832D091505040E695001CCAF71B
:101810002BD0FE2F29D0660F771F881FBB1F2617DE
:1018200037074807AB07B0E809F0BB0B802DBF01B5
:10183000FF2793585F4F3AF09E3F510578F00C9484
:10184000DF0A0C942A0B5F3FE4F3983ED4F38695AD
:1018500077956795B795F7959F5FC9F7880F911DA5
:101860009695879597F90895E1E0660F771F881F91
:10187000BB1F621773078407BA0720F0621B730B44
:10188000840BBA0BEE1F88F7E09508950E944D0C6B
:101890006894B1110C942A0B08950E940F0B88F0E4
:1018A0009F5798F0B92F9927B751B0F0E1F0660F24
:1018B000771F881F991F1AF0BA95C9F714C0B13065
:1018C00091F00E94290BB1E008950C94290B672F29
:1018D000782F8827B85F39F0B93FCCF38695779594
:1018E0006795B395D9F73EF490958095709561957D
:1018F0007F4F8F4F9F4F089597FB072E16F400944C
:1019000007D077FD09D00E94900C07FC05D03EF46B
:10191000909581959F4F0895709561957F4F08959B
:10192000AA1BBB1B51E107C0AA1FBB1FA617B70705
:1019300010F0A61BB70B881F991F5A95A9F7809521
:101940009095BC01CD010895EE0FFF1F0590F49115
:10195000E02D09940F931F93CF93DF93823091056D
:1019600010F482E090E0E0918A02F0918B0230E086
:1019700020E0B0E0A0E0309799F42115310509F49A
:101980004AC0281B390B24303105D8F58A819B8148
:101990006115710589F1FB0193838283FE0111C0FA
:1019A000408151810281138148175907E0F048179F
:1019B000590799F4109761F012960C9312971396A9
:1019C0001C933296CF01DF91CF911F910F91089513
:1019D00000938A0210938B02F4CF2115310551F048
:1019E0004217530738F0A901DB019A01BD01DF015D
:1019F000F801C1CFEF01F9CF90938B0280938A0257
:101A0000CDCFFE01E20FF31F819391932250310954
:101A100039832883D7CF2091880230918902232BE4
:101A200041F4209102013091030130938902209307
:101A3000880220910001309101012115310541F406
:101A40002DB73EB74091040150910501241B350B81
:101A5000E0918802F0918902E217F307A0F42E1BAF
:101A60003F0B2817390778F0AC014E5F5F4F241702
:101A7000350748F04E0F5F1F50938902409388024C
:101A8000819391939FCFF0E0E0E09CCFCF93DF93E1
:101A90000097E9F0FC01329713821282A0918A022A
:101AA000B0918B02ED0130E020E01097A1F420818D
:101AB0003181820F931F209188023091890228176B
:101AC000390709F061C0F0938902E0938802DF9141
:101AD000CF910895EA01CE17DF07E8F54A815B81CF
:101AE0009E0141155105B1F7E901FB83EA83499154
:101AF0005991C40FD51FEC17FD0761F480819181C6
:101B00000296840F951FE9019983888382819381CE
:101B10009B838A83F0E0E0E012968D919C9113976D
:101B20000097B9F52D913C911197CD010296820F46
:101B3000931F20918802309189022817390739F6BE
:101B4000309751F510928B0210928A02B09389025D
:101B5000A0938802BCCFD383C28340815181840F7C
:101B6000951FC817D90761F44E5F5F4F888199812F
:101B7000480F591F518340838A819B8193838283BD
:101B80002115310509F0B0CFF0938B02E0938A0262
:101B90009ECFFD01DC01C0CF13821282D7CFB0E00F
:101BA000A0E0E5EDFDE00C94320B8C01009751F4C0
:101BB000CB010E94AA0C8C01C801CDB7DEB7E0E1D1
:101BC0000C944E0BFC01E60FF71F9C0122503109CB
:101BD000E217F30708F49DC0D901CD91DC9111976C
:101BE000C617D70798F0C530D10530F3CE0104975A
:101BF0008617970708F3C61BD70B2297C193D1937B
:101C00006D937C93CF010E94460DD6CF5B01AC1A39
:101C1000BD0A4C018C0E9D1EA0918A02B0918B02D0
:101C2000512C412CF12CE12C109731F58091880238
:101C3000909189028815990509F05CC046165706EF
:101C400008F058C08091000190910101009741F483
:101C50008DB79EB74091040150910501841B950BEF
:101C6000E817F90708F055C0F0938902E09388025D
:101C7000F90171836083A0CF8D919C911197129689
:101C80006C90129713967C901397A815B90559F587
:101C90006C0142E0C40ED11CCA14DB0420F1AC017B
:101CA0004A195B09DA011296159780F062827382F5
:101CB00051834083D9016D937C93E114F10471F059
:101CC000D7011396FC93EE93129776CF22968C0F42
:101CD0009D1FF90191838083F301EFCFF0938B0275
:101CE000E0938A0269CF4816590608F42C017D0159
:101CF000D3019ACFCB010E94AA0C7C01009749F036
:101D0000AE01B8010E948C0EC8010E94460D8701E9
:101D100053CF10E000E050CFFB01DC0102C0019086
:101D20000D9241505040D8F70895FB01DC0101901D
:101D30000D920020E1F7089510E0CFEDD0E004C04F
:101D4000FE010E94A40C2196C03ED107C9F7F89469
:101D5000FFCF00008C02800000000000AA010A01F1
:101D60003701F701680146015A010D0A0051554536
:101D700055453A206572726F722064756520746FE4
:101D800020756E646573697261626C652073697A2F
:101D90006520666F722071756575652073697A6557
:101DA0002E0051554555453A20696E737566666932
:101DB0006369656E74206D656D6F727920746F2034
:101DC000696E697469616C697A652074656D706F9C
:101DD000726172792071756575652E005155455592
:101DE000453A2063616E277420706F7020697465B6
:101DF0006D2066726F6D2071756575653A2071751D
:101E000065756520697320656D7074792E002C00EE
:107E0000112484B714BE81FFF0D085E080938100F7
:107E100082E08093C00088E18093C10086E0809377
:107E2000C20080E18093C4008EE0C9D0259A86E02C
:107E300020E33CEF91E0309385002093840096BBD3
:107E4000B09BFECF1D9AA8958150A9F7CC24DD24C4
:107E500088248394B5E0AB2EA1E19A2EF3E0BF2EE7
:107E6000A2D0813461F49FD0082FAFD0023811F036
:107E7000013811F484E001C083E08DD089C08234E0
:107E800011F484E103C0853419F485E0A6D080C0E4
:107E9000853579F488D0E82EFF2485D0082F10E0AE
:107EA000102F00270E291F29000F111F8ED06801E7
:107EB0006FC0863521F484E090D080E0DECF843638
:107EC00009F040C070D06FD0082F6DD080E0C81688
:107ED00080E7D80618F4F601B7BEE895C0E0D1E017
:107EE00062D089930C17E1F7F0E0CF16F0E7DF06D8
:107EF00018F0F601B7BEE89568D007B600FCFDCFD4
:107F0000A601A0E0B1E02C9130E011968C91119780
:107F100090E0982F8827822B932B1296FA010C0160
:107F200087BEE89511244E5F5F4FF1E0A038BF0790
:107F300051F7F601A7BEE89507B600FCFDCF97BE46
:107F4000E89526C08437B1F42ED02DD0F82E2BD052
:107F50003CD0F601EF2C8F010F5F1F4F84911BD097
:107F6000EA94F801C1F70894C11CD11CFA94CF0C13
:107F7000D11C0EC0853739F428D08EE10CD085E9AC
:107F80000AD08FE07ACF813511F488E018D01DD067
:107F900080E101D065CF982F8091C00085FFFCCF94
:107FA0009093C60008958091C00087FFFCCF809118
:107FB000C00084FD01C0A8958091C6000895E0E648
:107FC000F0E098E1908380830895EDDF803219F02E
:107FD00088E0F5DFFFCF84E1DECF1F93182FE3DFCA
:107FE0001150E9F7F2DF1F91089580E0E8DFEE27F6
:047FF000FF270994CA
:027FFE00040479
:00000001FF
