:100000000C9438010C9469010C9469010C946901F9
:100010000C9469010C9469010C9469010C946901B8
:100020000C9469010C9469010C9469010C946901A8
:100030000C9469010C9469010C9469010C94690198
:100040000C9469010C9469010C9469010C94690188
:100050000C9469010C9469010C9469010C94C90514
:100060000C9469010C9493050C9469050C94690136
:100070000C9469010C9469010C9469010C94690158
:100080000C9469010C9469010C9469010C94690148
:100090000C9469010C9469010C9469010C94690138
:1000A0000C9469010C9469010C9469010C94690128
:1000B0000C9469010C9469010C9469010C94690118
:1000C0000C9469010C9469010C9469010C94690108
:1000D0000C9469010C9469010C9469010C946901F8
:1000E0000C9469010C94E8020C94EE020C94D30277
:1000F0000C94E1020C9413030C940A030C94DF019A
:100100000C94F8020C94AE010C94E5020C94F202EB
:100110000C94D9020C94FC020C94D1010C94A60608
:100120000C9406030C9481010C9418030C94DD02CA
:100130000C9464020C940E030C94BD010C94000307
:100140000C94D1080C9414030C94170200002100A5
:10015000240027002A002D00300033000101000098
:10016000040107010A0100002000230026002900E5
:100170002C002F00320000010000030106010901DC
:1001800000002200250028002B002E003100340042
:1001900002010000050108010B0105050505070521
:1001A00008080808020202020A0A080804040404F3
:1001B000010101010101010103030303030303031F
:1001C000040707070C0C0C0C0C0C0C0C02020202AE
:1001D00006060606060606060B0B0B0B0B0B0B0B97
:1001E0000102102020080810204010204080020149
:1001F000020108040201010204081020408080402E
:10020000201008040201800402018040201008042C
:1002100002010804020101020408102040800102CA
:1002200004081020408000000A0B02090C0D0E0883
:1002300007030401000000000000000000000000AF
:1002400000000000000000000000000000000000AE
:10025000000012111000000000000000000000006B
:10026000000000000000000000000000A606D10809
:1002700011241FBECFEFD1E2DEBFCDBF00E00CBF27
:1002800013E0A0E0B2E0E2E5F9E100E00BBF02C05C
:1002900007900D92AA33B107D9F724E0AAE3B3E09F
:1002A00001C01D92AC3DB207E1F711E0C7E3D1E018
:1002B00000E006C021970109802FFE010E94560B25
:1002C000C633D10780E00807A9F70E94E6060C9420
:1002D000970C0C94000080917B00877F80937B00BB
:1002E00080E480937C0080917A00806480937A001F
:1002F00080917A0086FDFCCF809178009091790002
:100300000895AF92BF92CF92DF92EF92FF920F9338
:100310001F93CF93DF936C017B018B01040F151F9B
:10032000EB015E01AE18BF08C017D10759F0699103
:10033000D601ED91FC910190F081E02DC601199557
:10034000892B79F7C501DF91CF911F910F91FF9014
:10035000EF90DF90CF90BF90AF900895FC01538D48
:10036000448D252F30E0842F90E0821B930B54178F
:1003700010F0CF96089501970895FC01918D828D1C
:10038000981761F0A28DAE0FBF2FB11D5D968C91B5
:10039000928D9F5F9F73928F90E008958FEF9FEFF4
:1003A0000895FC01918D828D981731F0828DE80FB0
:1003B000F11D858D90E008958FEF9FEF0895FC016A
:1003C000918D228D892F90E0805C9F4F821B910937
:1003D0008F73992708958BE493E00E94DF0121E059
:1003E000892B09F420E0822F0895FC01A48DA80F29
:1003F000B92FB11DA35ABF4F2C91848D90E0019667
:100400008F739927848FA689B7892C93A089B18986
:100410008C91837080648C93938D848D981306C027
:100420000288F389E02D80818F7D80830895EF928B
:10043000FF920F931F93CF93DF93EC0181E0888F9E
:100440009B8D8C8D98131AC0E889F989808185FF6E
:1004500015C09FB7F894EE89FF896083E889F98910
:1004600080818370806480839FBF81E090E0DF9112
:10047000CF911F910F91FF90EF900895F62E0B8D65
:1004800010E00F5F1F4F0F731127E02E8C8D8E1120
:100490000CC00FB607FCFACFE889F989808185FF87
:1004A000F5CFCE010E94F501F1CFEB8DEC0FFD2FC2
:1004B000F11DE35AFF4FF0829FB7F8940B8FEA8942
:1004C000FB8980818062CFCFCF93DF93EC01888D51
:1004D0008823B9F0AA89BB89E889F9898C9185FDBF
:1004E00003C0808186FD0DC00FB607FCF7CF8C914D
:1004F00085FFF2CF808185FFEDCFCE010E94F5010F
:10050000E9CFDF91CF91089580E090E0892B29F029
:100510000E94EB0181110E94000080E090E0892B95
:1005200049F080E090E0892B29F00E9400008111C1
:100530000E94000080E090E0892B49F080E090E08C
:10054000892B29F00E94000081110E94000080E0A8
:1005500090E0892B49F080E090E0892B29F00E94FF
:10056000000081110C94000008958150823108F040
:100570005AC0E82FF0E08827EF53FD4F8F4F0C94BF
:10058000560BE102E502D302D902DD021303E802B1
:10059000EE02F202F802FC02000306030A03130350
:1005A0000E0314031803809180008F7780938000DE
:1005B0000895809180008F7DF9CF80918000877FA2
:1005C000F5CF84B58F7784BD089584B58F7DFBCF3B
:1005D0008091B0008F778093B00008958091B00033
:1005E0008F7DF9CF809190008F7780939000089550
:1005F000809190008F7DF9CF80919000877FF5CF1B
:100600008091A0008F778093A00008958091A00032
:100610008F7DF9CF8091A000877FF5CF8091200159
:100620008F77809320010895809120018F7DF9CFED
:1006300080912001877FF5CFCF93DF9390E0FC017D
:10064000E052FE4F249186569E4FFC0184918823F0
:10065000D1F090E0880F991FFC01E45BFE4FA5915B
:10066000B491FC01E058FE4FC591D491623071F411
:100670009FB7F8943C91822F809583238C93E881D7
:100680002E2B28839FBFDF91CF9108958FB7F894C9
:10069000EC912E2B2C938FBFF6CF3FB7F89480911F
:1006A0003F0390914003A0914103B091420326B5CE
:1006B000A89B05C02F3F19F00196A11DB11D3FBF9A
:1006C000BA2FA92F982F8827BC01CD01620F711D69
:1006D000811D911D42E0660F771F881F991F4A9563
:1006E000D1F708958F929F92AF92BF92CF92DF92EF
:1006F000EF92FF924B015C010E944D036B017C0164
:100700000E944D036C197D098E099F09683E734054
:1007100081059105A8F321E0821A9108A108B1088A
:1007200088EEC80E83E0D81EE11CF11C81149104F0
:10073000A104B10429F7FF90EF90DF90CF90BF9014
:10074000AF909F908F900895FB0101900020E9F7F2
:100750003197AF01461B570BDC01ED91FC910280F4
:10076000F381E02D19948F929F92AF92BF920F93D5
:100770001F93CF93DF93CDB7DEB7A1970FB6F89451
:10078000DEBF0FBECDBF19A2423008F44AE08E0191
:100790000F5D1F4F842E912CB12CA12CA50194012B
:1007A0000E94340BE62FB901CA01EA3004F5E05D7E
:1007B000D801EE938D01232B242B252B79F790E084
:1007C00080E0109729F0BD018BE493E00E94A40320
:1007D000A1960FB6F894DEBF0FBECDBFDF91CF91CB
:1007E0001F910F91BF90AF909F908F900895E95CFB
:1007F000DFCF0F931F93CF93DF93EC010E94A403ED
:100800008C0168E772E0CE010E94A403800F911F63
:10081000DF91CF911F910F9108958F929F92AF9288
:10082000BF92CF92DF92EF92FF920F931F93CF93DD
:10083000DF93EC018B016BE772E01016110694F563
:10084000C801880F991F880F991F0E94720B7C01A5
:10085000009731F18E809F805C01C880D98030E0A4
:1008600020E02815390514F588859985820F931F96
:100870006C817D810E94200BFC01EE0FFF1FEE0FAB
:10088000FF1FEC0DFD1D80819181A281B381F501D7
:1008900081939193A193B1935F012F5F3F4FE1CF7C
:1008A00060EB72E08A819B810E945506C6010E941E
:1008B0000E0CF982E882198618868E819F819B87AB
:1008C0008A871D830C83DF91CF911F910F91FF9039
:1008D000EF90DF90CF90BF90AF909F908F90089552
:1008E0008F929F92AF92BF92CF92DF92EF92FF9240
:1008F0000F931F93CF93DF93EC014A015B018C01AF
:100900000A5F1F4F2E893F898881998128173907EF
:100910000CF450C08C859D85009731F46AEE72E02E
:10092000888599850E9455066E817F814E855F85F9
:100930009A012F5F3F4F3F872E87440F551F440F6B
:10094000551F460F571FFA01C080D180E280F38007
:1009500001979D878C876A857B852617370711F459
:100960001F861E860097A9F09B0177FF02C02D5FAE
:100970003F4F3595279535952795281739074CF022
:1009800077FF02C06F5F7F4F75956795C8010E9422
:100990000D04A70196016A897B898C899D890E9433
:1009A000DD086A8B7B8B8C8B9D8B8E899F89019751
:1009B0009F8B8E8B68817981072E000C880B990B99
:1009C0000E94F9099B01AC01C501B4010E944F09C5
:1009D0006B017C016C857D858A859B85681779070D
:1009E00029F4660F771FC8010E940D044E815F81B4
:1009F000888999899C012F5F3F4F398B288B880FFD
:100A0000991F880F991F840F951FFC01C082D18206
:100A1000E282F3828A859B852817390711F4198AA7
:100A2000188A8C859D8501969D878C876881798140
:100A3000072E000C880B990B0E94F9099B01AC0151
:100A4000C501B4010E944F092A893B894C895D89FF
:100A50000E94DE086A8B7B8B8C8B9D8B2E893F8955
:100A60002F5F3F4F3F8B2E8B8A809B80AC80BD8059
:100A7000A50194010E944F096B017C0120E030E048
:100A8000A9010E94A90A20E030E040E05FE387FD71
:100A90001BC0C701B6010E94DE080E94C1090E9466
:100AA000F9099B01AC01C501B4010E94AE0ADF91B6
:100AB000CF911F910F91FF90EF90DF90CF90BF905B
:100AC000AF909F908F900895C701B6010E94DD08F6
:100AD000E4CF1F920F920FB60F9211240BB60F9214
:100AE0002F933F934F935F936F937F938F939F9336
:100AF000AF93BF93EF93FF938BE493E00E94F501D4
:100B0000FF91EF91BF91AF919F918F917F916F91E5
:100B10005F914F913F912F910F900BBE0F900FBEA1
:100B20000F901F9018951F920F920FB60F921124DD
:100B30000BB60F922F938F939F93EF93FF93E091B8
:100B40005B03F0915C038081E0916103F0916203AB
:100B500082FD1DC09081809164038F5F8F7320910F
:100B60006503821741F0E0916403F0E0E55BFC4F20
:100B7000958F80936403FF91EF919F918F912F91B7
:100B80000F900BBE0F900FBE0F901F901895808195
:100B9000F2CF1F920F920FB60F9211242F933F9313
:100BA0008F939F93AF93BF9380913B0390913C03AE
:100BB000A0913D03B0913E0330913A0323E0230F0F
:100BC0002D3758F50196A11DB11D20933A0380934E
:100BD0003B0390933C03A0933D03B0933E0380916D
:100BE0003F0390914003A0914103B09142030196CD
:100BF000A11DB11D80933F0390934003A093410337
:100C0000B0934203BF91AF919F918F913F912F91EC
:100C10000F900FBE0F901F90189526E8230F029695
:100C2000A11DB11DD2CF1F93CF93DF93E3E3F2E079
:100C30009491EDEEF1E0D491E7EAF1E0C491CC2398
:100C4000B9F0182F992319F0892F0E94B502EC2FC3
:100C5000F0E0EE0FFF1FE058FE4FA591B4918FB763
:100C6000F894EC91111108C0D095DE23DC938FBF6E
:100C7000DF91CF911F910895DE2BF8CF61E08DE0D9
:100C80000E941C0381E00E9413066AEF70E080E07E
:100C900090E00E94720380E00E9413066AEF70E009
:100CA00080E090E00E947203EDCF009711F00E9467
:100CB000F9030E943E06CF92DF92EF92FF920F93CC
:100CC0001F93CF93DF93EC018B0169017A011B869F
:100CD0001A861D861C861F861E86198A188A198602
:100CE000188688E090E00E94720B9F838E83892B88
:100CF00011F40E943E0682E090E09B878A8780E2A2
:100D0000E6E0F2E0DE01589601900D928A95E1F757
:100D100080E4E6E2F2E0DE01D89601900D928A9539
:100D2000E1F719830883CA82DB82EC82FD821A8A8A
:100D30001B8A1C8A1D8A1F8A1E8ADF91CF911F91F0
:100D40000F91FF90EF90DF90CF900895EBE4F3E0E8
:100D50001382128288EE93E0A0E0B0E08483958352
:100D6000A683B7838AE692E09183808385EC90E046
:100D70009587848784EC90E09787868780EC90E065
:100D8000918B808B81EC90E0938B828B82EC90E056
:100D9000958B848B86EC90E0978B868B118E128ED0
:100DA000138E148E2AE037ED43E25CE360E170E0DD
:100DB00080E694E00E945B062DEC3CEC4CEC5DE39D
:100DC00068E070E088EE93E00C945B06789484B55C
:100DD000826084BD84B5816084BD85B5826085BD37
:100DE00085B5816085BD80916E00816080936E00C5
:100DF00010928100809181008260809381008091B7
:100E00008100816080938100809180008160809367
:100E100080008091B10084608093B1008091B00027
:100E200081608093B00080919100826080939100F6
:100E30008091910081608093910080919000816009
:100E4000809390008091A10082608093A1008091A6
:100E5000A10081608093A1008091A00081608093B7
:100E6000A000809121018260809321018091210165
:100E70008160809321018091200181608093200115
:100E800080917A00846080937A0080917A008260F9
:100E900080937A0080917A00816080937A008091BB
:100EA0007A00806880937A001092C100E0915B0321
:100EB000F0915C0382E08083E0915703F091580346
:100EC0001082E0915903F0915A0380E180831092DF
:100ED0006303E0915F03F091600386E08083E0911B
:100EE0005D03F0915E03808180618083E0915D030A
:100EF000F0915E03808188608083E0915D03F091D2
:100F00005E03808180688083E0915D03F0915E03E1
:100F100080818F7D808362E08DE00E941C036CE104
:100F200073E08BE493E00E94F90362E086E30E94A1
:100F30001C03C4E6D0E0C12CD12C76011AE064E198
:100F400070E080E090E00E9472030E946B01189FA5
:100F5000B001199F700D1124072E000C880B990BFE
:100F60000E94F90920E030E048EC52E40E944F0969
:100F70009B01AC01C701B6010E94DE086B017C0138
:100F80002197E9F620E030E0A9010E94DE08609395
:100F9000430370934403809345039093460366E2B2
:100FA00073E08BE493E00E94F90364E670E080E074
:100FB00090E00E9472039AE0D92EC3E3D2E00DEED6
:100FC00011E027EAE22E21E0F22E0E946B01D89E6A
:100FD000B001D99E700D1124072E000C880B990BBF
:100FE0000E94F9094B015C018092470390924803EB
:100FF000A0924903B0924A03FE018491F801C49083
:10100000F7017490772061F081110E94B502E72DFD
:10101000F0E0EE0FFF1FEA59FE4FA591B4918C91BD
:101020000E946B01D89EB001D99E700D1124072E2D
:10103000000C880B990B0E94F909AB01BC0180E6FA
:1010400094E00E947004AB01BC0188EE93E00E9422
:101050007004A5019401C501B4010E941B0B6DE24F
:1010600073E081111AC024013501E89477F82FEF5D
:101070003FEF4FE75FE7C301B2010E941B0B8111F5
:1010800019C02FEF3FEF4FE75FE7C301B2010E94A6
:101090004A0918167CF461E373E08BE493E00E9444
:1010A000A40368E772E08BE493E00E94A4030E942B
:1010B00084028BCF2FEF3FEF4FE75FE4C501B40110
:1010C0000E94A90A18161CF465E373E0E6CF2FEF1F
:1010D0003FEF4FE75FECC501B4010E944A0987FD6D
:1010E000F3CF20E030E0A901C501B4010E944A0914
:1010F00087FF09C06DE28BE493E00E941702B7FA04
:10110000B094B7F8B0942AE037ED43EA5BE3C50149
:10111000B4010E94DE082B013C010E94C8094B016A
:101120005C010E94F7099B01AC01C301B2010E945E
:10113000DD082B013C014AE0C501B4010E94B30364
:101140006EE28BE493E00E94170220E030E040E280
:1011500051E4C301B2010E94AE0A2B013C010E947E
:10116000C8094B01B12CA12C4AE0C501B4010E9471
:10117000B303C501B4010E94F7099B01AC01C3018F
:10118000B2010E94DD0820E030E040E251E40E941C
:10119000AE0A0E94C80990E080E04AE00E94B303D2
:1011A00080CF8091EE039091EF030E940E0C80910E
:1011B0006604909167040C940E0C5058BB27AA2724
:1011C0000E94F5080C946F0A0E94610A38F00E9490
:1011D000680A20F039F49F3F19F426F40C945E0A53
:1011E0000EF4E095E7FB0C94580AE92F0E94800A60
:1011F00058F3BA17620773078407950720F079F44C
:10120000A6F50C94A20A0EF4E0950B2EBA2FA02D91
:101210000B01B90190010C01CA01A0011124FF27A3
:10122000591B99F0593F50F4503E68F11A16F0409E
:10123000A22F232F342F4427585FF3CF469537959D
:101240002795A795F0405395C9F77EF41F16BA0B62
:10125000620B730B840BBAF09150A1F0FF0FBB1F10
:10126000661F771F881FC2F70EC0BA0F621F731F59
:10127000841F48F4879577956795B795F7959E3FB6
:1012800008F0B0CF9395880F08F09927EE0F979547
:10129000879508950E94340A08F481E008950E9419
:1012A00063090C946F0A0E94680A58F00E94610A50
:1012B00040F029F45F3F29F00C94580A51110C9426
:1012C000A30A0C945E0A0E94800A68F39923B1F382
:1012D000552391F3951B550BBB27AA27621773075C
:1012E000840738F09F5F5F4F220F331F441FAA1FF0
:1012F000A9F335D00E2E3AF0E0E832D091505040AC
:10130000E695001CCAF72BD0FE2F29D0660F771F59
:10131000881FBB1F261737074807AB07B0E809F03F
:10132000BB0B802DBF01FF2793585F4F3AF09E3FC4
:10133000510578F00C94580A0C94A30A5F3FE4F32B
:10134000983ED4F3869577956795B795F7959F5F07
:10135000C9F7880F911D9695879597F90895E1E053
:10136000660F771F881FBB1F621773078407BA07B2
:1013700020F0621B730B840BBA0BEE1F88F7E0950D
:1013800008950E94C8096894B1110C94A30A0895A5
:101390000E94880A88F09F5798F0B92F9927B75173
:1013A000B0F0E1F0660F771F881F991F1AF0BA9509
:1013B000C9F714C0B13091F00E94A20AB1E00895BB
:1013C0000C94A20A672F782F8827B85F39F0B93FAD
:1013D000CCF3869577956795B395D9F73EF49095BC
:1013E0008095709561957F4F8F4F9F4F0895E8943A
:1013F00009C097FB3EF490958095709561957F4F5D
:101400008F4F9F4F9923A9F0F92F96E9BB2793950A
:10141000F695879577956795B795F111F8CFFAF41A
:10142000BB0F11F460FF1BC06F5F7F4F8F4F9F4F4B
:1014300016C0882311F096E911C0772321F09EE8A9
:10144000872F762F05C0662371F096E8862F70E00F
:1014500060E02AF09A95660F771F881FDAF7880FE9
:101460009695879597F90895990F0008550FAA0B3F
:10147000E0E8FEEF16161706E807F907C0F01216A7
:101480001306E407F50798F0621B730B840B950BAA
:1014900039F40A2661F0232B242B252B21F40895FF
:1014A0000A2609F4A140A6958FEF811D811D08959C
:1014B00097F99F6780E870E060E008959FEF80EC07
:1014C000089500240A9416161706180609060895AA
:1014D00000240A9412161306140605060895092E10
:1014E0000394000C11F4882352F0BB0F40F4BF2B7F
:1014F00011F460FF04C06F5F7F4F8F4F9F4F0895BF
:1015000057FD9058440F551F59F05F3F71F04795B4
:10151000880F97FB991F61F09F3F79F08795089599
:10152000121613061406551FF2CF4695F1DF08C0B8
:10153000161617061806991FF1CF869571056105D5
:1015400008940895E894BB2766277727CB0197F97D
:1015500008950E94340A08F48FEF08950E94C10A8A
:101560000C946F0A0E94610A38F00E94680A20F009
:10157000952311F00C94580A0C945E0A11240C94D3
:10158000A30A0E94800A70F3959FC1F3950F50E063
:10159000551F629FF001729FBB27F00DB11D639F25
:1015A000AA27F00DB11DAA1F649F6627B00DA11DCB
:1015B000661F829F2227B00DA11D621F739FB00D71
:1015C000A11D621F839FA00D611D221F749F3327E1
:1015D000A00D611D231F849F600D211D822F762F7A
:1015E0006A2F11249F5750409AF0F1F088234AF057
:1015F000EE0FFF1FBB1F661F771F881F91505040C3
:10160000A9F79E3F510580F00C94580A0C94A30A48
:101610005F3FE4F3983ED4F3869577956795B79549
:10162000F795E7959F5FC1F7FE2B880F911D969563
:10163000879597F908950E94340A880B990B0895AD
:1016400097FB072E16F4009407D077FD09D00E946F
:101650005E0B07FC05D03EF4909581959F4F089551
:10166000709561957F4F0895A1E21A2EAA1BBB1BAE
:10167000FD010DC0AA1FBB1FEE1FFF1FA217B3075E
:10168000E407F50720F0A21BB30BE40BF50B661F74
:10169000771F881F991F1A9469F760957095809538
:1016A00090959B01AC01BD01CF010895EE0FFF1F86
:1016B000881F8BBF0790F691E02D1994AA1BBB1BC6
:1016C00051E107C0AA1FBB1FA617B70710F0A61B42
:1016D000B70B881F991F5A95A9F780959095BC0163
:1016E000CD0108950F931F93CF93DF93823091051F
:1016F00010F482E090E0E091DA04F091DB0430E055
:1017000020E0B0E0A0E0309799F42115310509F40C
:101710004AC0281B390B24303105D8F58A819B81BA
:101720006115710589F1FB0193838283FE0111C06C
:10173000408151810281138148175907E0F0481711
:10174000590799F4109761F012960C93129713961B
:101750001C933296CF01DF91CF911F910F91089585
:101760000093DA041093DB04F4CF2115310551F016
:101770004217530738F0A901DB019A01BD01DF01CF
:10178000F801C1CFEF01F9CF9093DB048093DA0425
:10179000CDCFFE01E20FF31F8193919322503109C7
:1017A00039832883D7CF2091D8043091D904232BB3
:1017B00041F420910202309103023093D904209326
:1017C000D80420910002309101022115310541F425
:1017D0002DB73EB74091040250910502241B350BF2
:1017E000E091D804F091D904E217F307A0F42E1B7E
:1017F0003F0B2817390778F0AC014E5F5F4F241775
:10180000350748F04E0F5F1F5093D9044093D8041A
:10181000819391939FCFF0E0E0E09CCFCF93DF9353
:101820000097E9F0FC01329713821282A091DA044A
:10183000B091DB04ED0130E020E01097A1F42081AD
:101840003181820F931F2091D8043091D904281739
:10185000390709F061C0F093D904E093D804DF910F
:10186000CF910895EA01CE17DF07E8F54A815B8141
:101870009E0141155105B1F7E901FB83EA834991C6
:101880005991C40FD51FEC17FD0761F48081918138
:101890000296840F951FE901998388838281938141
:1018A0009B838A83F0E0E0E012968D919C911397E0
:1018B0000097B9F52D913C911197CD010296820FB9
:1018C000931F2091D8043091D9042817390739F68D
:1018D000309751F51092DB041092DA04B093D904DA
:1018E000A093D804BCCFD383C28340815181840F9D
:1018F000951FC817D90761F44E5F5F4F88819981A2
:10190000480F591F518340838A819B81938382832F
:101910002115310509F0B0CFF093DB04E093DA0430
:101920009ECFFD01DC01C0CF13821282D7CF11E020
:10193000C7E3D1E000E006C0802FFE010E94560BF5
:101940002196011DC833D10780E00807A9F7F89454
:02195000FFCFC7
:101952000000DC0480009A99993E0000803E9A992A
:10196200193E1F85EB3D295C8F3DB81E853D8FC218
:10197200F53C0AD7A33CCDCC4C3E9A99193EAE47D2
:10198200E13DEC51B83D0AD7A33D9A99993D8FC2EA
:10199200753D0AD7233D295C0F3D8FC2F53C8FC2AE
:1019A200F53CCDCCCC3CCDCCCC3C0AD7A33C0AD721
:1019B200233C0AD7233C0000000017028101AE013C
:1019C2006402DF01BD01D1010D0A005155455545A3
:1019D2003A206572726F722064756520746F20758B
:1019E2006E646573697261626C652073697A6520E1
:1019F200666F722071756575652073697A652E0050
:101A020051554555453A20696E7375666669636935
:101A1200656E74206D656D6F727920746F20696ECA
:101A2200697469616C697A652074656D706F726141
:101A320072792071756575652E0051554555453A87
:101A42002063616E277420706F70206974656D2049
:101A520066726F6D2071756575653A207175657571
:101A62006520697320656D7074792E005365726903
:101A7200616C204F4B00414443204F4B006E616E1E
:0A1A820000696E66006F76660000D2
:00000001FF
